:020000040800F2
:10000000000002205D130008C9120008CF1200088A
:10001000D5120008DB120008E11200080000000001
:10002000000000000000000000000000414E000839
:10003000E71200080000000091500008F5120008C7
:10004000AD130008AD130008AD130008AD13000890
:10005000AD130008AD130008AD130008AD13000880
:10006000AD130008AD130008AD130008AD13000870
:10007000AD130008AD130008AD130008AD13000860
:10008000AD130008AD1300081113000800000000B4
:10009000000000000000000000000000AD13000898
:1000A000AD130008AD130008AD130008AD13000830
:1000B000AD130008AD130008AD130008AD13000820
:1000C000AD130008AD130008AD130008AD13000810
:1000D000AD130008AD130008AD13000800000000C8
:1000E000AD130008AD130008AD13000800000000B8
:1000F000000000000000000000000000AD13000838
:1001000000000000AD130008AD130008AD13000897
:1001100000000000000000000000000000000000DF
:1001200025130008AD130008AD130008AD13000837
:10013000AD130008000000000000000000000000F7
:10014000000000000000000000000000AD130008E7
:10015000AD130008AD130008AD130008AD1300087F
:10016000AD130008AD1300080000000000000000FF
:10017000000000000000000000000000000000007F
:1001800000000000AD1300080000000000000000A7
:08019000AD130008AD130008D7
:1001A00010B5054C237833B9044B13B10448AFF3B1
:1001B00000800123237010BDF40000200000000027
:1001C0004C57000808B5034B1BB103490348AFF374
:1001D000008008BD00000000F80000204C57000817
:1001E00053B94AB9002908BF00281CBF4FF0FF319E
:1001F0004FF0FF3000F074B9ADF1080C6DE904CE9A
:1002000000F006F8DDF804E0DDE9022304B07047F1
:100210002DE9F047089D04468E46002B4DD18A42B9
:10022000944669D9B2FA82F252B101FA02F3C2F1EC
:10023000200120FA01F10CFA02FC41EA030E94407D
:100240004FEA1C48210CBEFBF8F61FFA8CF708FB9E
:1002500016E341EA034306FB07F199420AD91CEB76
:10026000030306F1FF3080F01F81994240F21C81A8
:10027000023E63445B1AA4B2B3FBF8F008FB1033F0
:1002800044EA034400FB07F7A7420AD91CEB040425
:1002900000F1FF3380F00A81A74240F207816444F5
:1002A000023840EA0640E41B00261DB1D44000237A
:1002B000C5E900433146BDE8F0878B4209D9002DDE
:1002C00000F0EF800026C5E9000130463146BDE868
:1002D000F087B3FA83F6002E4AD18B4202D38242D2
:1002E00000F2F980841A61EB030301209E46002D81
:1002F000E0D0C5E9004EDDE702B9FFDEB2FA82F2D6
:10030000002A40F09280A1EB0C014FEA1C471FFA33
:100310008CFE0126200CB1FBF7F307FB131140EA1A
:1003200001410EFB03F0884208D91CEB010103F1E7
:10033000FF3802D2884200F2CB804346091AA4B2A9
:10034000B1FBF7F007FB101144EA01440EFB00FE7D
:10035000A64508D91CEB040400F1FF3102D2A645E2
:1003600000F2BB800846A4EB0E0440EA03409CE781
:10037000C6F12007B34022FA07FC4CEA030C20FA2E
:1003800007F401FA06F31C43F9404FEA1C4900FA4E
:1003900006F3B1FBF9F8200C1FFA8CFE09FB1811CB
:1003A00040EA014108FB0EF0884202FA06F20BD93E
:1003B0001CEB010108F1FF3A80F08880884240F28E
:1003C0008580A8F102086144091AA4B2B1FBF9F0D2
:1003D00009FB101144EA014100FB0EFE8E4508D9CD
:1003E0001CEB010100F1FF346CD28E456AD9023852
:1003F000614440EA0840A0FB0294A1EB0E01A14237
:10040000C846A64656D353D05DB1B3EB080261EBA4
:100410000E0101FA07F722FA06F3F1401F43C5E97E
:10042000007100263146BDE8F087C2F12003D840B4
:100430000CFA02FC21FA03F3914001434FEA1C47F6
:100440001FFA8CFEB3FBF7F007FB10360B0C43EAE8
:10045000064300FB0EF69E4204FA02F408D91CEB98
:10046000030300F1FF382FD29E422DD90238634496
:100470009B1B89B2B3FBF7F607FB163341EA034136
:1004800006FB0EF38B4208D91CEB010106F1FF3885
:1004900016D28B4214D9023E6144C91A46EA00467C
:1004A00038E72E46284605E70646E3E61846F8E60E
:1004B0004B45A9D2B9EB020864EB0C0E0138A3E757
:1004C0004646EAE7204694E74046D1E7D0467BE738
:1004D000023B614432E7304609E76444023842E7B0
:1004E000704700BF80B485B000AFF860B9607A6033
:1004F000FB68074A1A60BB68064A1A607B6880225C
:100500001A6000BF1437BD465DF8047B704700BF1A
:1005100010010020C4010020B0B58EB000AF00F083
:1005200047FF00F069F800F035FA00F013FA00F028
:10053000C1F800F021F902222549264801F0BCF952
:10054000244800F0EBFF244B244A9A60224B80227F
:100550009A81214B214A1A601F4B4FF480529A8096
:100560001D4B1E4A1A611C4B01229A821A4B1C4ACF
:100570009A61194800F041FA1A49174800F082FBC5
:10058000194B07F11C041D460FCD0FC495E8070059
:1005900084E8070007F11C030021184603F06DFDF5
:1005A0000346124A1360124B3C461D460FCD0FC442
:1005B00095E8070084E807003B460021184603F051
:1005C0005CFD03460B4A136003F050FDFEE700BFDD
:1005D00074040020CC030020D80400200004024052
:1005E00080040020000000207C570008C403002085
:1005F00098570008C803002080B594B000AF07F1F9
:10060000200330220021184604F0D6FF07F10C0326
:1006100000221A605A609A60DA601A610023BB6097
:10062000224B1B6C214A43F0805313641F4B1B6CFD
:1006300003F08053BB60BB6800237B601C4B1B68CE
:100640001B4A43F440431360194B1B6803F44043B7
:100650007B607B6802233B620123FB6210233B63C8
:100660000023BB6307F12003184602F00DFB03468D
:10067000002B01D000F0BCF90F23FB6000233B618D
:1006800000237B610023BB610023FB6107F10C03A6
:100690000021184602F070FD0346002B01D000F047
:1006A000A7F900BF5037BD4680BD00BF00380240EB
:1006B0000070004080B584B000AF3B4600221A6055
:1006C0005A609A60DA60294B294A1A60274B002247
:1006D0005A60264B00229A60244B01221A61234B58
:1006E00001221A76214B002283F820201F4B002282
:1006F000DA621E4B1F4A9A621C4B0022DA601B4BC7
:100700000222DA61194B012283F83020174B0022B4
:100710005A61164800F0BEFE0346002B01D000F0DF
:1007200067F900233B6001237B600723BB603B46E6
:1007300019460E4801F0CEF90346002B01D000F017
:1007400057F901233B6002237B600623BB603B46D5
:100750001946064801F0BEF90346002B01D000F00F
:1007600047F900BF1037BD4680BD00BFCC03002055
:10077000002001400100000F80B500AF174B184A60
:100780001A60164B4FF482725A60144B00229A6022
:10079000124B0022DA60114B00221A610F4B00222B
:1007A0005A610E4B4FF400729A610C4B0022DA61D1
:1007B0000A4B00221A62094B00225A62074B0022A0
:1007C0009A62064B0A22DA62044802F081FE03466E
:1007D000002B01D000F00CF900BF80BD8004002088
:1007E0000038004080B582B000AF7860254800F046
:1007F00095FE0221244800F0F3F9244B5B8840F277
:10080000A362934216D9214B5B8840F6B8329342DB
:1008100010D816221E491C4800F049FA0346012B45
:1008200008D10121184800F0DBF901220221194802
:1008300002F010FA154B5B8840F61B4293420BD92D
:1008400016221549104800F032FA0346012B03D155
:1008500001210D4800F0C4F90C4B5B88B3F57A7F99
:100860000BD816220D49084800F021FA0346012B47
:1008700003D10121044800F0B3F9642003F049FCDE
:10088000B4E700BFCC030020D80400207C04002083
:1008900068000020000402402000002038000020F2
:1008A00080B582B000AF7860154B1B8840F61B42C4
:1008B000934210D916221349134800F0F8F9034661
:1008C000012B08D10121104800F08AF900220221F1
:1008D0000E4802F0BFF90A4B1B88B3F57A7F0BD89C
:1008E00016220B49084800F0E2F90346012B03D118
:1008F0000121054800F074F9642003F00AFCD3E7F5
:100900007C04002008000020D804002000040240DD
:100910005000002080B483B000AF78607B681B6813
:10092000094A934209D1094B1B689AB2084B1A80B5
:10093000064B5B689AB2064B5A8000BF0C37BD4627
:100940005DF8047B704700BF002001407404002064
:100950007C04002080B582B000AF00237B600C4B8C
:100960001B6B0B4A43F480031363094B1B6B03F4AB
:1009700080037B607B6800220021382001F03FFC6F
:10098000382001F058FC00BF0837BD4680BD00BFCD
:100990000038024080B586B000AF3B1D00221A60CF
:1009A0005A609A60DA601A6100233B600E4B1B6B41
:1009B0000D4A43F0020313630B4B1B6B03F002035E
:1009C0003B603B6841F2BF037B600123BB600023B7
:1009D000FB6000233B613B1D1946044801F0B6FF54
:1009E00000BF1837BD4680BD0038024000040240F9
:1009F00080B400AF72B600BFFEE780B582B000AF32
:100A00007860786800F0C6F900220021786800F06C
:100A1000F1F97B680022DA7700220121786800F082
:100A2000E9F900220221786800F0E4F903220321A9
:100A3000786800F0DFF900220421786800F0DAF924
:100A40000021786800F013F80321786800F05AF864
:100A50006421786800F0AEF80121786800F0C0F8F1
:100A6000786800F087F900BF0837BD4680BD80B5C3
:100A700084B000AF78600B46FB70786800F08AF9AC
:100A80000621786800F01DFA0346FB73FB78022B01
:100A90001ED0022B28DC002B02D0012B0CD023E02F
:100AA000FB7B43F02003FB73FB7B23F00803FB730A
:100AB0007B6800225A7718E0FB7B23F02003FB734E
:100AC000FB7B23F00803FB737B6801225A770CE061
:100AD000FB7B23F02003FB73FB7B43F00803FB73DA
:100AE0007B6802225A7700E000BFFB7B1A46062192
:100AF000786800F07FF9786800F03CF900BF1037A3
:100B0000BD4680BD80B584B000AF78600B46FB70F9
:100B1000786800F03FF90621786800F0D2F90346C2
:100B2000FB73FB78032B37D801A252F823F000BFE8
:100B3000410B0008590B0008710B0008890B0008D5
:100B4000FB7B23F00403FB73FB7B23F00203FB73AB
:100B50007B6800221A7720E0FB7B23F00403FB7301
:100B6000FB7B43F00203FB737B6801221A7714E0DE
:100B7000FB7B43F00403FB73FB7B23F00203FB735B
:100B80007B6802221A7708E0FB7B43F00603FB73C5
:100B90007B6803221A7700E000BFFB7B1A46062120
:100BA000786800F027F9786800F0E4F800BF1037A3
:100BB000BD4680BD80B582B000AF78600B46FB704B
:100BC000786800F0E7F8FB781A460521786800F0AD
:100BD00011F9786800F0CEF800BF0837BD4680BD37
:100BE00080B584B000AF78600B46FB700021786858
:100BF00000F067F90346FB73FB78032B37D801A29B
:100C000052F823F0150C0008250C00083B0C0008D6
:100C1000590C0008FB7B23F00203FB737B68002266
:100C20009A7725E0786800F0B5F8FB7B43F0020383
:100C3000FB737B6801229A771AE0786800F09AF8D3
:100C4000FB7B43F00203FB73FB7B23F00103FB738D
:100C50007B6802229A770BE0786800F08BF8FB7BC8
:100C600043F00303FB737B6803229A7700E000BF25
:100C7000FB7B1A460021786800F0BCF800BF1037F3
:100C8000BD4680BD80B582B000AF786039607868BD
:100C900000F080F805233A681021786800F0D5F854
:100CA000786800F067F800BF0837BD4680BD80B5A2
:100CB00088B000AFF860B9601346FB710023BB75C4
:100CC000F86800F077F8A023BB75FB68986907F116
:100CD00016014FF4FA63012202F083FC00BFFB68A7
:100CE0009B69184603F06CF80346012BF7D1FB799A
:100CF000202B08D8FB689869FB799AB24FF4FA6305
:100D0000B96802F06EFCF86800F064F80023FB7725
:100D100026E00023BB6103E000BFBB690133BB6178
:100D2000BB69C72BF8DD1721F86800F0CAF8034645
:100D3000FB75FB7D03F01003002B11D0FB7D03F04E
:100D40000803002B0CD1E123BB75BB7D1946F86865
:100D500000F0E4F81721F86800F002F9012305E03B
:100D6000FB7F5A1CFA77092BD3D90023184620376A
:100D7000BD4680BD80B582B000AF78607B68986862
:100D80007B689B890122194601F064FF00BF083788
:100D9000BD4680BD80B582B000AF78607B68986842
:100DA0007B689B890022194601F054FF00BF083779
:100DB000BD4680BD80B582B000AF78607B681868A2
:100DC0007B689B880022194601F044FF00BF08376A
:100DD000BD4680BD80B582B000AF78607B68186882
:100DE0007B689B880122194601F034FF00BF083759
:100DF000BD4680BD80B584B000AF78600B46FB7007
:100E00001346BB70FB7843F02003DBB23B73BB7827
:100E10007B737868FFF7CEFF7B68986907F10C0158
:100E20004FF4FA63022202F0DCFB00BF7B689B698F
:100E3000184602F0C5FF0346012BF7D17868FFF78B
:100E4000C9FF00BF1037BD4680BD80B586B000AF7A
:100E5000F8607A601A460B46FB7213463B81FB7AB8
:100E600043F02003DBB23B75F868FFF7A3FFFB6894
:100E7000986907F114014FF4FA63012202F0B1FB03
:100E800000BFFB689B69184602F09AFF0346012BDE
:100E9000F7D1FB6898693A894FF4FA63796802F0F0
:100EA000A0FB00BFFB689B69184602F089FF034660
:100EB000012BF7D1F868FFF78DFF00BF1837BD464B
:100EC00080BD80B584B000AF78600B46FB70002316
:100ED000FB737868FFF76EFF7B689869F91C4FF425
:100EE000FA63012202F07DFB00BF7B689B69184614
:100EF00002F066FF0346012BF7D17B68986907F182
:100F00000F014FF4FA63012202F0A7FC7868FFF7A3
:100F100061FFFB7B18461037BD4680BD80B582B0AF
:100F200000AF78600B46FB707868FFF743FF7B6883
:100F30009869F91C4FF4FA63012202F052FB00BFDA
:100F40007B689B69184602F03BFF0346012BF7D1F3
:100F50007868FFF73FFF00BF0837BD4680BD00003F
:100F600080B588B000AF78600B46FB70FB78072B2C
:100F700005D1002207217868FFF73CFFA8E0FB7845
:100F8000172B05D1112217217868FFF733FF9FE057
:100F9000082200217868FFF72DFF3F2201217868A1
:100FA000FFF728FF032202217868FFF723FF0322BF
:100FB00003217868FFF71EFF032204217868FFF7FA
:100FC00019FF022205217868FFF714FF0E2206217F
:100FD0007868FFF70FFF002207217868FFF70AFF04
:100FE000002208217868FFF705FF002209217868B0
:100FF000FFF700FF384A07F1180392E80300186072
:101000000433197007F1180205230A217868FFF7E5
:101010001CFF324A07F1100392E803001860043302
:10102000197007F1100205230B217868FFF70DFFF7
:10103000C3220C217868FFF7DDFEC4220D217868F9
:10104000FFF7D8FEC5220E217868FFF7D3FEC6222F
:101050000F217868FFF7CEFE1F4A07F1080392E8D8
:10106000030018600433197007F1080205231021EA
:101070007868FFF7EAFE002211217868FFF7BAFED0
:10108000002212217868FFF7B5FE0022132178684C
:10109000FFF7B0FE002214217868FFF7ABFE0022B4
:1010A00015217868FFF7A6FE002216217868FFF761
:1010B000A1FE112217217868FFF79CFE00221C2157
:1010C0007868FFF797FE00221D217868FFF792FEEF
:1010D00000BF2037BD4680BDB4570008BC5700088C
:1010E00080B582B000AF00237B60124B5B6C114A6D
:1010F00043F4804353640F4B5B6C03F480437B6089
:101100007B6800233B600B4B1B6C0A4A43F0805307
:101110001364084B1B6C03F080533B603B68002258
:101120000F216FF0010001F06AF800BF0837BD46DB
:1011300080BD00BF0038024080B58AB000AF786043
:1011400007F1140300221A605A609A60DA601A618B
:101150007B681B68334A93425FD100233B61324B6B
:101160005B6C314A43F4807353642F4B5B6C03F424
:1011700080733B613B690023FB602B4B1B6B2A4A4E
:1011800043F001031363284B1B6B03F00103FB6067
:10119000FB6803237B610323BB610023FB6107F131
:1011A00014031946214801F0D1FB214B214A1A6052
:1011B0001F4B00225A601E4B00229A601C4B0022DB
:1011C000DA601B4B4FF480621A61194B4FF4805266
:1011D0005A61174B4FF480429A61154B4FF480725D
:1011E000DA61134B00221A62114B00225A62104836
:1011F00001F03CF80346002B01D0FFF7F9FB7B68B8
:101200000B4A9A630A4A7B689363002205211220E5
:1012100000F0F5FF122001F00EF800BF2837BD46A0
:1012200080BD00BF002001400038024000000240A5
:10123000140400201064024080B58AB000AF7860CA
:1012400007F1140300221A605A609A60DA601A618A
:101250007B681B68194A93422CD100233B61184BD1
:101260001B6C174A43F480431364154B1B6C03F447
:1012700080433B613B690023FB60114B1B6B104AB1
:1012800043F0020313630E4B1B6B03F00203FB607E
:10129000FB684FF444437B610223BB610023FB6185
:1012A00003233B6205237B6207F1140319460548BB
:1012B00001F04CFB00BF2837BD4680BD0038004020
:1012C000003802400004024080B400AFFEE780B462
:1012D00000AFFEE780B400AFFEE780B400AFFEE7EA
:1012E00080B400AFFEE780B400AF00BFBD465DF83C
:1012F000047B704780B500AF00F0ACF803F0B8FC99
:101300000346012B01D003F0F7FE00BF80BD0000B3
:1013100080B500AF024800F0BFF900BF80BD00BF3C
:10132000CC03002080B500AF024801F0A5F800BF53
:1013300080BD00BF1404002080B400AF064BD3F87A
:101340008830054A43F47003C2F8883000BFBD46B8
:101350005DF8047B704700BF00ED00E0DFF834D09B
:101360000D480E490E4A002302E0D458C4500433FD
:10137000C4188C42F9D30B4A0B4C002301E01360D4
:101380000432A242FBD3FFF7D7FF04F0EFF8FFF7D8
:10139000C3F870470000022000000020F400002085
:1013A00054580008F400002058420020FEE70000D6
:1013B00080B500AF0E4B1B680D4A43F400731360F9
:1013C0000B4B1B680A4A43F480631360084B1B688D
:1013D000074A43F480731360032000F005FF0F20D9
:1013E00000F008F8FFF77CFE0023184680BD00BF20
:1013F000003C024080B582B000AF7860124B1A68A2
:10140000124B1B7819464FF47A73B3FBF1F3B2FB1E
:10141000F3F3184600F01DFF0346002B01D0012313
:101420000EE07B680F2B0AD8002279684FF0FF305E
:1014300000F0E5FE064A7B681360002300E001230C
:1014400018460837BD4680BD800000208800002077
:101450008400002080B400AF064B1B781A46064B70
:101460001B681344044A136000BFBD465DF8047B4B
:10147000704700BF88000020F804002080B400AF4F
:10148000034B1B681846BD465DF8047B704700BFE0
:10149000F804002080B584B000AF78600023FB73AF
:1014A0007B68002B01D1012333E07B681B6C002B90
:1014B00009D17868FFF740FE7B6800225A647B6898
:1014C000002283F83C207B681B6C03F01003002B88
:1014D00018D17B681B6C23F4885323F0020343F07C
:1014E00002027B681A64786800F026FC7B680022A0
:1014F0005A647B681B6C23F0030343F001027B6892
:101500001A6401E00123FB737B68002283F83C200E
:10151000FB7B18461037BD4680BD000080B485B007
:1015200000AF78600023BB607B6893F83C30012BF0
:1015300001D10223A1E07B68012283F83C207B6873
:101540001B689B6803F00103012B18D07B681B68A4
:101550009A687B681B6842F001029A604A4B1B68DC
:101560004A4AA2FB03239A0C13465B001344BB6058
:1015700002E0BB68013BBB60BB68002BF9D17B6814
:101580001B689B6803F00103012B69D17B681B6C0E
:1015900023F4E06323F0010343F480727B681A6450
:1015A0007B681B685B6803F48063002B07D07B6853
:1015B0001B6C23F4405343F480527B681A647B68AD
:1015C0001B6C03F48053B3F5805F06D17B685B6CC2
:1015D00023F006027B685A6402E07B6800225A64AA
:1015E0007B68002283F83C20294BFB607B681B68EA
:1015F0006FF022021A607B681B685B687A68126869
:1016000043F0806343F020035360FB685B6803F0A2
:101610001F03002B0FD17B681B689B6803F04053AE
:10162000002B29D17B681B689A687B681B6842F095
:1016300080429A6020E07B681B68164A93421BD167
:101640007B681B689B6803F04053002B14D17B68B8
:101650001B689A687B681B6842F080429A600BE0C6
:101660007B681B6C43F010027B681A647B685B6CC0
:1016700043F001027B685A64002318461437BD46C4
:101680005DF8047B704700BF8000002083DE1B43B1
:10169000002301400020014080B586B000AF786093
:1016A00000237B6100233B617B681B681B68FB6038
:1016B0007B681B685B68BB60FB6803F002037B61AF
:1016C000BB6803F020033B617B69002B49D03B6979
:1016D000002B46D07B681B6C03F01003002B05D158
:1016E0007B681B6C43F400727B681A647B681B6820
:1016F0009B6803F04053002B2BD17B681B7E002B93
:1017000027D17B681B68DB6A03F47003002B06D0CB
:101710007B681B689B6803F48063002B19D17B688E
:101720001B685A687B681B6822F020025A607B683D
:101730001B6C23F480727B681A647B681B6C03F457
:101740008053002B05D17B681B6C43F001027B6842
:101750001A647868FFF7DEF87B681B686FF0120286
:101760001A60FB6803F004037B61BB6803F080032D
:101770003B617B69002B57D03B69002B54D07B68C1
:101780001B6C03F01003002B05D17B681B6C43F42A
:1017900000527B681A647B681B689B6803F44013E3
:1017A000002B39D17B681B689B6B03F44013002B23
:1017B00006D07B681B689B6803F48063002B2BD1E9
:1017C0007B681B685B6803F48063002B24D17B6813
:1017D0001B689B6803F04053002B1DD17B681B7E68
:1017E000002B19D17B681B685A687B681B6822F044
:1017F00080025A607B681B6C23F480527B681A64F9
:101800007B681B6C03F48073002B05D17B681B6C19
:1018100043F001027B681A64786800F00BFC7B6877
:101820001B686FF00C021A60FB6803F001037B6118
:10183000BB6803F040033B617B69002B17D03B6919
:10184000002B14D07B681B681B6803F00103012B7D
:101850000DD17B681B6C43F480327B681A64786816
:1018600000F024F97B681B686FF001021A60FB68C6
:1018700003F020037B61BB6803F080633B617B69FD
:10188000002B15D03B69002B12D07B685B6C43F0BA
:1018900002027B685A647B681B686FF020021A6042
:1018A000786800F00DF97B681B686FF020021A6001
:1018B00000BF1837BD4680BD80B586B000AFF86068
:1018C000B9607A6000233B61FB6893F83C30012BE0
:1018D00001D10223CEE0FB68012283F83C20FB68A3
:1018E0001B689B6803F00103012B18D0FB681B6881
:1018F0009A68FB681B6842F001029A605F4B1B68A4
:101900005F4AA2FB03239A0C13465B0013443B611E
:1019100002E03B69013B3B613B69002BF9D1FB686D
:101920001B689B6803F48073B3F5807F07D1FB6865
:101930001B689A68FB681B6822F480729A60FB68D7
:101940001B689B6803F00103012B40F08680FB6855
:101950001B6C23F4E06323F0010343F48072FB6803
:101960001A64FB681B685B6803F48063002B07D074
:10197000FB681B6C23F4405343F48052FB681A64E9
:10198000FB681B6C03F48053B3F5805F06D1FB68E2
:101990005B6C23F00602FB685A6402E0FB680022DD
:1019A0005A64FB68002283F83C20364B7B61FB685D
:1019B0009B6B354ADA63FB689B6B344A1A64FB689D
:1019C0009B6B334ADA64FB681B686FF022021A6073
:1019D000FB681B685A68FB681B6842F080625A60AB
:1019E000FB681B689A68FB681B6842F480729A6007
:1019F000FB68986BFB681B684C331946BA687B68B8
:101A000000F0E2FC7B695B6803F01F03002B0FD141
:101A1000FB681B689B6803F04053002B29D1FB68CF
:101A20001B689A68FB681B6842F080429A6020E05D
:101A3000FB681B68174A93421BD1FB681B689B68B5
:101A400003F04053002B14D1FB681B689A68FB68B5
:101A50001B6842F080429A600BE0FB681B6C43F00D
:101A60001002FB681A64FB685B6C43F00102FB68C0
:101A70005A64002318461837BD4680BD80000020F8
:101A800083DE1B4300230140311F0008EB1F0008C9
:101A9000072000080020014080B483B000AF7860C8
:101AA00000BF0C37BD465DF8047B704780B483B03F
:101AB00000AF786000BF0C37BD465DF8047B70470F
:101AC00080B483B000AF786000BF0C37BD465DF8CE
:101AD000047B704780B485B000AF78603960002324
:101AE000BB607B6893F83C30012B01D1022313E1EA
:101AF0007B68012283F83C203B681B68092B25D9B1
:101B00007B681B68D9683B681B689BB21A46134602
:101B10005B0013441E3B072202FA03F3DA437B689F
:101B20001B680A40DA607B681B68D9683B689A6862
:101B30003B681B689BB2184603465B0003441E3B90
:101B40009A407B681B680A43DA6022E07B681B6866
:101B500019693B681B689BB21A4613465B00134425
:101B6000072202FA03F3DA437B681B680A401A6112
:101B70007B681B6819693B689A683B681B689BB265
:101B8000184603465B0003449A407B681B680A437F
:101B90001A613B685B68062B24D87B681B68596B0D
:101BA0003B685A6813469B001344053B1F2202FA08
:101BB00003F3DA437B681B680A405A637B681B683F
:101BC000596B3B681B689BB218463B685A681346C2
:101BD0009B001344053B00FA03F27B681B680A4331
:101BE0005A634CE03B685B680C2B24D87B681B680D
:101BF000196B3B685A6813469B001344233B1F2212
:101C000002FA03F3DA437B681B680A401A637B68B5
:101C10001B68196B3B681B689BB218463B685A6887
:101C200013469B001344233B00FA03F27B681B68B6
:101C30000A431A6323E07B681B68D96A3B685A68C9
:101C400013469B001344413B1F2202FA03F3DA437D
:101C50007B681B680A40DA627B681B68D96A3B684C
:101C60001B689BB218463B685A6813469B00134496
:101C7000413B00FA03F27B681B680A43DA62294B96
:101C8000FB607B681B68284A93420FD13B681B6846
:101C9000122B0BD1FB685B6823F40002FB685A60CF
:101CA000FB685B6843F48002FB685A607B681B68D2
:101CB0001D4A93422BD13B681B681C4A934203D0B8
:101CC0003B681B68112B22D1FB685B6823F4800200
:101CD000FB685A60FB685B6843F40002FB685A606B
:101CE0003B681B68114A934211D1114B1B68114A82
:101CF000A2FB03239A0C13469B0013445B00BB60BA
:101D000002E0BB68013BBB60BB68002BF9D17B687C
:101D1000002283F83C20002318461437BD465DF8A6
:101D2000047B704700230140002001401200001096
:101D30008000002083DE1B4380B485B000AF786054
:101D4000794BFB60FB685B6823F44032FB685A60A8
:101D5000FB685A687B685B681A43FB685A607B685B
:101D60001B685A687B681B6822F480725A607B6823
:101D70001B6859687B681B691A027B681B680A43E9
:101D80005A607B681B685A687B681B6822F0407247
:101D90005A607B681B6859687B689A687B681B6817
:101DA0000A435A607B681B689A687B681B6822F448
:101DB00000629A607B681B6899687B68DA687B6858
:101DC0001B680A439A607B689B6A584A934222D0F8
:101DD0007B681B689A687B681B6822F070629A6057
:101DE0007B681B6899687B689A6A7B681B680A43F2
:101DF0009A607B681B689A687B681B6822F0405277
:101E00009A607B681B6899687B68DA6A7B681B68E4
:101E10000A439A600FE07B681B689A687B681B68BE
:101E200022F070629A607B681B689A687B681B6806
:101E300022F040529A607B681B689A687B681B6836
:101E400022F002029A607B681B6899687B681B7E9F
:101E50005A007B681B680A439A607B6893F82030BD
:101E6000002B1BD07B681B685A687B681B6842F498
:101E700000625A607B681B685A687B681B6822F4A2
:101E800060425A607B681B6859687B685B6A013BEB
:101E90005A037B681B680A435A6007E07B681B682B
:101EA0005A687B681B6822F400625A607B681B6872
:101EB000DA6A7B681B6822F47002DA627B681B684E
:101EC000D96A7B68DB69013B1A057B681B680A439A
:101ED000DA627B681B689A687B681B6822F4007270
:101EE0009A607B681B6899687B6893F830305A0267
:101EF0007B681B680A439A607B681B689A687B68EA
:101F00001B6822F480629A607B681B6899687B6812
:101F10005B699A027B681B680A439A6000BF1437AA
:101F2000BD465DF8047B7047002301400100000FAF
:101F300080B584B000AF78607B689B6BFB60FB680A
:101F40001B6C03F05003002B3CD1FB681B6C43F46B
:101F50000072FB681A64FB681B689B6803F04053BF
:101F6000002B2BD1FB681B7E002B27D1FB681B6845
:101F7000DB6A03F47003002B06D0FB681B689B68C8
:101F800003F48063002B19D1FB681B685A68FB6857
:101F90001B6822F020025A60FB681B6C23F48072DD
:101FA000FB681A64FB681B6C03F48053002B05D19B
:101FB000FB681B6C43F00102FB681A64F868FEF7CB
:101FC000A9FC0EE0FB681B6C03F01003002B03D090
:101FD000F868FFF775FD04E0FB689B6BDB6C7868C5
:101FE000984700BF1037BD4680BD80B584B000AFB4
:101FF00078607B689B6BFB60F868FFF74DFD00BF66
:102000001037BD4680BD80B584B000AF78607B6876
:102010009B6BFB60FB6840221A64FB685B6C43F0BF
:102020000402FB685A64F868FFF74AFD00BF1037E6
:10203000BD4680BD80B483B000AF786000BF0C3770
:10204000BD465DF8047B704780B485B000AF786012
:102050007B6803F00703FB600C4BDB68BB60BA686E
:102060004FF6FF031340BB60FB681A02BB681343C3
:1020700043F0BF6343F40033BB60044ABB68D360E2
:1020800000BF1437BD465DF8047B704700ED00E0EB
:1020900080B400AF044BDB681B0A03F0070318464B
:1020A000BD465DF8047B704700ED00E080B483B06E
:1020B00000AF0346FB7197F90730002B0BDBFB7970
:1020C00003F01F02074997F907305B09012000FA66
:1020D00002F241F8232000BF0C37BD465DF8047BB7
:1020E000704700BF00E100E080B483B000AF03465A
:1020F0003960FB7197F90730002B0ADB3B68DAB2D5
:102100000C4997F907301201D2B20B4483F800232F
:102110000AE03B68DAB20849FB7903F00F03043B9D
:102120001201D2B20B441A7600BF0C37BD465DF8DF
:10213000047B704700E100E000ED00E080B489B06E
:1021400000AFF860B9607A60FB6803F00703FB61D9
:10215000FB69C3F10703042B28BF0423BB61FB69A0
:102160000433062B02D9FB69033B00E000237B61AB
:102170004FF0FF32BB6902FA03F3DA43BB681A403F
:102180007B699A404FF0FF317B6901FA03F3D94331
:102190007B680B40134318462437BD465DF8047B2B
:1021A0007047000080B582B000AF78607B68013B6B
:1021B000B3F1807F01D301230FE00A4A7B68013B22
:1021C00053600F214FF0FF30FFF78EFF054B0022C9
:1021D0009A60044B07221A60002318460837BD4650
:1021E00080BD00BF10E000E080B582B000AF786035
:1021F0007868FFF729FF00BF0837BD4680BD80B56E
:1022000086B000AF0346B9607A60FB7300237B6140
:10221000FFF73EFF78617A68B9687869FFF78EFF4B
:10222000024697F90F3011461846FFF75DFF00BFD1
:102230001837BD4680BD80B582B000AF0346FB7144
:1022400097F907301846FFF731FF00BF0837BD4642
:1022500080BD80B582B000AF78607868FFF7A2FFDC
:10226000034618460837BD4680BD000080B586B0DD
:1022700000AF786000237B61FFF700F938617B686D
:10228000002B01D1012399E07B68022283F83520DD
:102290007B68002283F834207B681B681A687B689F
:1022A0001B6822F001021A600FE0FFF7E7F8024610
:1022B0003B69D31A052B08D97B6820225A657B68B5
:1022C000032283F83520032378E07B681B681B68B2
:1022D00003F00103002BE8D17B681B681B687B615E
:1022E0007A69384B13407B617B685A687B689B68CE
:1022F0001A437B68DB681A437B681B691A437B6857
:102300005B691A437B689B691A437B68DB691A43E4
:102310007B681B6A13437A6913437B617B685B6A42
:10232000042B07D17B68DA6A7B681B6B13437A69DD
:1023300013437B617B681B687A691A607B681B6842
:102340005B697B617B6923F007037B617B685B6A68
:102350007A6913437B617B685B6A042B17D17B68C6
:102360009B6A7A6913437B617B68DB6A002B0ED022
:10237000786800F06FFA0346002B08D07B68402293
:102380005A657B68012283F83520012316E07B68BB
:102390001B687A695A61786800F026FA0346FB6088
:1023A0007B68DB6D3F229A40FB689A607B68002265
:1023B0005A657B68012283F83520002318461837B8
:1023C000BD4680BD3F8010F080B586B000AFF8609C
:1023D000B9607A603B600023FB75FB689B6D3B61D5
:1023E000FB6893F83430012B01D1022340E0FB68F5
:1023F000012283F83420FB6893F83530DBB2012BDF
:102400002FD1FB68022283F83520FB6800225A6531
:102410003B687A68B968F86800F0B8F9FB68DB6D6A
:102420003F229A403B699A60FB681B681A68FB6808
:102430001B6842F016021A60FB681B6C002B07D069
:10244000FB681B681A68FB681B6842F008021A6088
:10245000FB681B681A68FB681B6842F001021A607F
:1024600005E0FB68002283F834200223FB75FB7D26
:1024700018461837BD4680BD80B586B000AF78607D
:102480000023BB608E4B1B688E4AA2FB03239B0A72
:102490007B617B689B6D3B613B691B68FB607B6874
:1024A000DB6D08229A40FB681340002B1AD07B6832
:1024B0001B681B6803F00403002B13D07B681B68A8
:1024C0001A687B681B6822F004021A607B68DB6D67
:1024D00008229A403B699A607B685B6D43F0010279
:1024E0007B685A657B68DB6D01229A40FB6813406C
:1024F000002B12D07B681B685B6903F08003002B04
:102500000BD07B68DB6D01229A403B699A607B6847
:102510005B6D43F002027B685A657B68DB6D0422C9
:102520009A40FB681340002B12D07B681B681B6825
:1025300003F00203002B0BD07B68DB6D04229A4072
:102540003B699A607B685B6D43F004027B685A6567
:102550007B68DB6D10229A40FB681340002B43D050
:102560007B681B681B6803F00803002B3CD07B686A
:10257000DB6D10229A403B699A607B681B681B6880
:1025800003F48023002B18D07B681B681B6803F4BE
:102590000023002B08D17B681B6C002B24D07B68A8
:1025A0001B6C786898471FE07B689B6C002B1BD0E6
:1025B0007B689B6C7868984716E07B681B681B6893
:1025C00003F48073002B07D17B681B681A687B6853
:1025D0001B6822F008021A607B681B6C002B03D07A
:1025E0007B681B6C786898477B68DB6D20229A407B
:1025F000FB681340002B00F08F807B681B681B6812
:1026000003F01003002B00F087807B68DB6D202235
:102610009A403B699A607B6893F83530DBB2052BB2
:1026200036D17B681B681A687B681B6822F016022B
:102630001A607B681B685A697B681B6822F08002FD
:102640005A617B681B6C002B03D17B689B6C002B51
:1026500007D07B681B681A687B681B6822F0080239
:102660001A607B68DB6D3F229A403B699A607B6809
:10267000012283F835207B68002283F834207B68B0
:102680001B6D002B7ED07B681B6D7868984779E0C6
:102690007B681B681B6803F48023002B1DD07B68BC
:1026A0001B681B6803F40023002B0DD17B685B6C57
:1026B000002B31D07B685B6C786898472CE000BFBA
:1026C00080000020B5814E1B7B68DB6B002B23D084
:1026D0007B68DB6B786898471EE07B681B681B682B
:1026E00003F48073002B0FD17B681B681A687B682A
:1026F0001B6822F010021A607B68012283F83520E3
:102700007B68002283F834207B68DB6B002B03D0CE
:102710007B68DB6B786898477B685B6D002B32D0F9
:102720007B685B6D03F00103002B22D07B680522E0
:1027300083F835207B681B681A687B681B6822F069
:1027400001021A60BB680133BB607A699A4207D301
:102750007B681B681B6803F00103002BF2D100E0CB
:1027600000BF7B68012283F835207B68002283F854
:1027700034207B68DB6C002B05D07B68DB6C7868D1
:10278000984700E000BF1837BD4680BD80B485B0D3
:1027900000AFF860B9607A603B60FB681B681A683C
:1027A000FB681B6822F480221A60FB681B683A6889
:1027B0005A60FB689B68402B08D1FB681B687A68ED
:1027C0009A60FB681B68BA68DA6007E0FB681B6800
:1027D000BA689A60FB681B687A68DA6000BF1437D1
:1027E000BD465DF8047B704780B485B000AF78606B
:1027F0007B681B68DBB2103B144AA2FB03231B0956
:10280000FB60134AFB6813441B781A467B68DA6541
:10281000FB68032B09D97B681B6823F47F7323F0C3
:1028200003031A1D7B689A6507E07B681B6823F425
:102830007F7323F003037A6893657B689B6D18466A
:102840001437BD465DF8047B704700BFABAAAAAA47
:10285000DC57000880B485B000AF78600023FB73BC
:102860007B689B6ABB607B689B69002B1FD1BB6840
:10287000032B56D801A252F823F000BF8D28000880
:102880009F2800088D280008232900087B68DB6A40
:1028900003F08073002B46D00123FB7343E07B6879
:1028A000DB6AB3F1C07F40D10123FB733DE07B685D
:1028B0009B69B3F5005F21D1BB68032B37D801A218
:1028C00052F823F0D5280008DB280008D528000896
:1028D000ED2800080123FB7330E07B68DB6A03F01E
:1028E0008073002B25D00123FB7322E07B68DB6A19
:1028F000B3F1C07F1FD10123FB731CE0BB68022B27
:1029000003D9BB68032B03D018E00123FB7315E048
:102910007B68DB6A03F08073002B0ED00123FB730E
:102920000BE000BF0AE000BF08E000BF06E000BF08
:1029300004E000BF02E000BF00E000BFFB7B1846E0
:102940001437BD465DF8047B704700BF80B489B082
:1029500000AF7860396000237B6100233B61002376
:10296000BB610023FB6159E10122FB6902FA03F319
:102970007B613B681B687A6913403B613A697B69FC
:102980009A4240F048813B685B6803F00303012BE7
:1029900005D03B685B6803F00303022B30D17B68F2
:1029A0009B68BB61FB695B00032202FA03F3DB4314
:1029B000BA691340BB613B68DA68FB695B0002FAE5
:1029C00003F3BA691343BB617B68BA699A607B6899
:1029D0005B68BB610122FB6902FA03F3DB43BA695E
:1029E0001340BB613B685B681B0903F00102FB6994
:1029F00002FA03F3BA691343BB617B68BA695A6090
:102A00003B685B6803F00303032B17D07B68DB682C
:102A1000BB61FB695B00032202FA03F3DB43BA6983
:102A20001340BB613B689A68FB695B0002FA03F3E1
:102A3000BA691343BB617B68BA69DA603B685B685B
:102A400003F00303022B23D1FB69DA087B68083209
:102A500053F82230BB61FB6903F007039B000F2290
:102A600002FA03F3DB43BA691340BB613B681A699E
:102A7000FB6903F007039B0002FA03F3BA691343EF
:102A8000BB61FB69DA087B680832B96943F8221038
:102A90007B681B68BB61FB695B00032202FA03F3DE
:102AA000DB43BA691340BB613B685B6803F0030218
:102AB000FB695B0002FA03F3BA691343BB617B68ED
:102AC000BA691A603B685B6803F44033002B00F07E
:102AD000A2800023FB60574B5B6C564A43F4804353
:102AE0005364544B5B6C03F48043FB60FB68524AB5
:102AF000FB699B08023352F82330BB61FB6903F08A
:102B000003039B000F2202FA03F3DB43BA6913406D
:102B1000BB617B68494A934219D07B68484A93421B
:102B200013D07B68474A93420DD07B68464A934254
:102B300007D07B68454A934201D1042308E007236C
:102B400006E0032304E0022302E0012300E0002367
:102B5000FA6902F0030292009340BA691343BB6121
:102B60003549FB699B080233BA6941F82320384B89
:102B70009B68BB613B69DB43BA691340BB613B683F
:102B80005B6803F48013002B03D0BA693B691343DD
:102B9000BB612F4ABB6993602D4BDB68BB613B690E
:102BA000DB43BA691340BB613B685B6803F4001305
:102BB000002B03D0BA693B691343BB61244ABB694C
:102BC000D360234B5B68BB613B69DB43BA6913404D
:102BD000BB613B685B6803F40033002B03D0BA6928
:102BE0003B691343BB611A4ABB695360184B1B68AE
:102BF000BB613B69DB43BA691340BB613B685B68FF
:102C000003F48033002B03D0BA693B691343BB61E3
:102C10000F4ABB691360FB690133FB61FB690F2B32
:102C20007FF6A2AE00BF00BF2437BD465DF8047B2F
:102C3000704700BF003802400038014000000240E9
:102C40000004024000080240000C02400010024054
:102C5000003C014080B483B000AF78600B467B80BD
:102C600013467B707B78002B03D07A887B689A614F
:102C700003E07B881A047B689A6100BF0C37BD466D
:102C80005DF8047B7047000080B586B000AF7860C7
:102C90007B68002B01D1012367E27B681B6803F08E
:102CA0000103002B75D0884B9B6803F00C03042BA9
:102CB0000CD0854B9B6803F00C03082B12D1824B80
:102CC0005B6803F48003B3F5800F0BD17E4B1B6868
:102CD00003F40033002B5BD07B685B68002B57D17B
:102CE000012342E27B685B68B3F5803F06D1764BF7
:102CF0001B68754A43F4803313601DE07B685B6892
:102D0000B3F5A02F0CD1704B1B686F4A43F480239E
:102D100013606D4B1B686C4A43F4803313600BE007
:102D2000694B1B68684A23F480331360664B1B6849
:102D3000654A23F4802313607B685B68002B13D003
:102D4000FEF79CFB386108E0FEF798FB02463B6902
:102D5000D31A642B01D9032307E25B4B1B6803F4EE
:102D60000033002BF0D014E0FEF788FB386108E058
:102D7000FEF784FB02463B69D31A642B01D9032377
:102D8000F3E1514B1B6803F40033002BF0D100E05A
:102D900000BF7B681B6803F00203002B63D04A4B23
:102DA0009B6803F00C03002B0BD0474B9B6803F090
:102DB0000C03082B1CD1444B5B6803F48003002BED
:102DC00016D1414B1B6803F00203002B05D07B6832
:102DD000DB68012B01D00123C7E13B4B1B6823F0CB
:102DE000F8027B681B69DB00374913430B603AE04C
:102DF0007B68DB68002B20D0344B01221A60FEF781
:102E00003DFB386108E0FEF739FB02463B69D31A07
:102E1000022B01D90323A8E12B4B1B6803F002030B
:102E2000002BF0D0284B1B6823F0F8027B681B694D
:102E3000DB00254913430B6015E0244B00221A6088
:102E4000FEF71CFB386108E0FEF718FB02463B6901
:102E5000D31A022B01D9032387E11B4B1B6803F014
:102E60000203002BF0D17B681B6803F00803002BE2
:102E700036D07B685B69002B16D0154B01221A6097
:102E8000FEF7FCFA386108E0FEF7F8FA02463B6903
:102E9000D31A022B01D9032367E10B4B5B6F03F0BD
:102EA0000203002BF0D01BE0094B00221A60FEF752
:102EB000E5FA38610EE0FEF7E1FA02463B69D31A03
:102EC000022B07D9032350E100380240000047429B
:102ED000800E4742884B5B6F03F00203002BEAD160
:102EE0007B681B6803F00403002B00F0978000232D
:102EF000FB75814B1B6C03F08053002B0FD100231B
:102F0000BB607D4B1B6C7C4A43F0805313647A4B4F
:102F10001B6C03F08053BB60BB680123FB75774BD0
:102F20001B6803F48073002B18D1744B1B68734A21
:102F300043F480731360FEF7A1FA386108E0FEF7EE
:102F40009DFA02463B69D31A022B01D903230CE1F7
:102F50006A4B1B6803F48073002BF0D07B689B687E
:102F6000012B06D1644B1B6F634A43F001031367C7
:102F70001CE07B689B68052B0CD15F4B1B6F5E4A86
:102F800043F0040313675C4B1B6F5B4A43F0010380
:102F900013670BE0584B1B6F574A23F0010313676D
:102FA000554B1B6F544A23F0040313677B689B68DF
:102FB000002B15D0FEF762FA38610AE0FEF75EFAE0
:102FC00002463B69D31A41F28832934201D9032366
:102FD000CBE0494B1B6F03F00203002BEED014E053
:102FE000FEF74CFA38610AE0FEF748FA02463B6900
:102FF000D31A41F28832934201D90323B5E03E4B04
:103000001B6F03F00203002BEED1FB7D012B05D1DA
:10301000394B1B6C384A23F0805313647B689B69DF
:10302000002B00F0A180344B9B6803F00C03082BAD
:103030005CD07B689B69022B41D1314B00221A6026
:10304000FEF71CFA386108E0FEF718FA02463B6901
:10305000D31A022B01D9032387E0274B1B6803F007
:103060000073002BF0D17B68DA697B681B6A1A4316
:103070007B685B6A9B011A437B689B6A5B08013B28
:103080001B041A437B68DB6A1B061B4913434B6016
:103090001B4B01221A60FEF7F1F9386108E0FEF7D8
:1030A000EDF902463B69D31A022B01D903235CE0F8
:1030B000114B1B6803F00073002BF0D054E0104B51
:1030C00000221A60FEF7DAF9386108E0FEF7D6F957
:1030D00002463B69D31A022B01D9032345E0064B74
:1030E0001B6803F00073002BF0D13DE07B689B6907
:1030F000012B07D1012338E0003802400070004066
:10310000600047421B4B5B68FB607B689B69012B3F
:1031100028D0FB6803F480027B68DB699A4221D1E6
:10312000FB6803F03F027B681B6A9A421AD1FA6877
:1031300047F6C07313407A68526A9201934211D1E4
:10314000FB6803F440327B689B6A5B08013B1B040D
:103150009A4207D1FB6803F070627B68DB6A1B064A
:103160009A4201D0012300E0002318461837BD46DB
:1031700080BD00BF0038024080B584B000AF7860E9
:1031800039607B68002B01D10123CCE0684B1B68C0
:1031900003F007033A689A420CD9654B3A68D2B2F9
:1031A0001A70634B1B6803F007033A689A4201D018
:1031B0000123B8E07B681B6803F00203002B20D0DA
:1031C0007B681B6803F00403002B05D0594B9B68F8
:1031D000584A43F4E05393607B681B6803F008038C
:1031E000002B05D0534B9B68524A43F460439360D5
:1031F000504B9B6823F0F0027B689B684D4913435A
:103200008B607B681B6803F00103002B44D07B6854
:103210005B68012B07D1474B1B6803F40033002B7D
:1032200019D101237FE07B685B68022B03D07B68A8
:103230005B68032B07D13F4B1B6803F00073002B27
:1032400009D101236FE03B4B1B6803F00203002B05
:1032500001D1012367E0374B9B6823F003027B68B1
:103260005B68344913438B60FEF708F9F8600AE0A5
:10327000FEF704F90246FB68D31A41F28832934202
:1032800001D903234FE02B4B9B6803F00C027B68B2
:103290005B689B009A42EBD1254B1B6803F0070348
:1032A0003A689A420CD2224B3A68D2B21A70204B3A
:1032B0001B6803F007033A689A4201D0012332E009
:1032C0007B681B6803F00403002B08D0194B9B6834
:1032D00023F4E0527B68DB68164913438B607B68FC
:1032E0001B6803F00803002B09D0124B9B6823F4E2
:1032F00060427B681B69DB000E4913438B6000F062
:1033000021F802460B4B9B681B0903F00F030A4987
:10331000CB5C22FA03F3094A1360094B1B68184679
:10332000FEF768F8002318461037BD4680BD00BF81
:10333000003C024000380240CC57000880000020CA
:10334000840000202DE9B04F90B000AF00237B63D4
:103350000023FB6300233B630023BB63594B9B6843
:1033600003F00C03082B0DD0082B00F2A180002BDA
:1033700002D0042B03D09BE0534BBB639BE0534B29
:10338000BB6398E04F4B5B6803F03F037B634D4B9F
:103390005B6803F48003002B28D04A4B5B689B09D1
:1033A00000223B627A623B6AC3F308000021474B6C
:1033B00003FB01F2002300FB03F31344434AA0FB89
:1033C0000212FA620A46BA62FA6A1344FB627B6B23
:1033D0000022BB61FA61D7E90623D7E90A01FCF7AD
:1033E000FFFE02460B461346FB6353E0354B5B681A
:1033F0009B0900223B617A613B69C3F3080A4FF0E5
:10340000000B52465B464FF000004FF0000159019F
:1034100041EAD261500102460B46B2EB0A0863EB67
:103420000B094FF000024FF000034FEA891343EA03
:1034300098634FEA8812B2EB080463EB09054FF07A
:1034400000024FF00003EB0043EA5473E20014461D
:103450001D4614EB0A033B6045EB0B037B604FF00A
:1034600000024FF00003D7E9004529468B022146B0
:1034700043EA915321468A02104619467B6B00228B
:10348000BB60FA60D7E90223FCF7AAFE02460B46AE
:103490001346FB630B4B5B681B0C03F00303013308
:1034A0005B003B63FA6B3B6BB2FBF3F3BB6302E085
:1034B000054BBB6300BFBB6B18464037BD46BDE83C
:1034C000B08F00BF003802400024F40040787D0136
:1034D00080B582B000AF78607B68002B01D10123FA
:1034E0007BE07B685B6A002B08D17B685B68B3F587
:1034F000827F09D07B680022DA6105E07B680022C8
:103500001A617B6800225A617B6800229A627B689C
:1035100093F85130DBB2002B06D17B68002283F890
:1035200050207868FDF788FE7B68022283F85120DE
:103530007B681B681A687B681B6822F040021A606F
:103540007B685B6803F482727B689B6803F40443C6
:103550001A437B68DB6803F400631A437B681B69CA
:1035600003F002031A437B685B6903F001031A430B
:103570007B689B6903F400731A437B68DB6903F083
:1035800038031A437B681B6A03F0800342EA030195
:103590007B689B6A03F400527B681B680A431A60CD
:1035A0007B689B691B0C03F004017B685B6A03F07A
:1035B00010027B681B680A435A607B681B68DA69E3
:1035C0007B681B6822F40062DA617B6800225A651E
:1035D0007B68012283F85120002318460837BD4636
:1035E00080BD80B588B000AFF860B9603B6013461D
:1035F000FB800023FB77FB6893F85030012B01D14F
:10360000022326E1FB68012283F85020FDF736FFF4
:10361000B861FB88FB82FB6893F85130DBB2012B69
:1036200002D00223FB770BE1BB68002B02D0FB88A2
:10363000002B02D10123FB7702E1FB68032283F810
:103640005120FB6800225A65FB68BA681A63FB6860
:10365000FA889A86FB68FA88DA86FB6800229A6301
:10366000FB6800229A87FB680022DA87FB68002249
:103670005A64FB6800221A64FB689B68B3F5004F2C
:103680000FD1FB681B681A68FB681B6822F04002B8
:103690001A60FB681B681A68FB681B6842F480426A
:1036A0001A60FB681B681B6803F04003402B07D0BF
:1036B000FB681B681A68FB681B6842F040021A60CE
:1036C000FB68DB68B3F5006F4BD1FB685B68002BD0
:1036D00002D0FB8A012B3ED1FB681B6B1A88FB686A
:1036E0001B68DA60FB681B6B9A1CFB681A63FB683B
:1036F000DB8E9BB2013B9AB2FB68DA862BE0FB685B
:103700001B689B6803F00203022B12D1FB681B6B42
:103710001A88FB681B68DA60FB681B6B9A1CFB68E5
:103720001A63FB68DB8E9BB2013B9AB2FB68DA86B8
:1037300011E0FDF7A3FE0246BB69D31A3A689A422C
:1037400003D83B68B3F1FF3F02D13B68002B02D1A5
:103750000323FB7774E0FB68DB8E9BB2002BCED19A
:103760004CE0FB685B68002B02D0FB8A012B40D148
:10377000FB681A6BFB681B680C3312781A70FB68C5
:103780001B6B5A1CFB681A63FB68DB8E9BB2013B08
:103790009AB2FB68DA862CE0FB681B689B6803F032
:1037A0000203022B13D1FB681A6BFB681B680C33F6
:1037B00012781A70FB681B6B5A1CFB681A63FB6853
:1037C000DB8E9BB2013B9AB2FB68DA8611E0FDF713
:1037D00055FE0246BB69D31A3A689A4203D83B6841
:1037E000B3F1FF3F02D13B68002B02D10323FB77EB
:1037F00026E0FB68DB8E9BB2002BCDD1BA6939681D
:10380000F86800F0D9FB0346002B02D0FB682022A9
:103810005A65FB689B68002B0AD100233B61FB685B
:103820001B68DB683B61FB681B689B683B613B690D
:10383000FB685B6D002B02D00123FB7700E000BF2B
:10384000FB68012283F85120FB68002283F8502096
:10385000FB7F18462037BD4680BD80B588B002AFDB
:10386000F860B9603B601346FB800023FB75FB6882
:103870005B68B3F5827F12D1FB689B68002B0ED189
:10388000FB68042283F85120FA883B6800931346B2
:10389000BA68B968F86800F0F1F80346EAE0FB6836
:1038A00093F85030012B01D10223E3E0FB680122A1
:1038B00083F85020FDF7E2FD3861FB6893F8513042
:1038C000DBB2012B02D00223FB75CAE0BB68002BE0
:1038D00002D0FB88002B02D10123FB75C1E0FB68FD
:1038E000042283F85120FB6800225A65FB68BA68FD
:1038F0009A63FB68FA889A87FB68FA88DA87FB681C
:1039000000221A63FB6800229A86FB680022DA868E
:10391000FB6800221A64FB6800225A64FB689B68FB
:10392000B3F5004F0FD1FB681B681A68FB681B6872
:1039300022F040021A60FB681B681A68FB681B686B
:1039400022F480421A60FB681B681B6803F0400386
:10395000402B07D0FB681B681A68FB681B6842F0A5
:1039600040021A60FB68DB68002B62D12EE0FB6826
:103970001B689B6803F00103012B15D1FB681B68D2
:1039800003F10C02FB689B6B1278D2B21A70FB68D1
:103990009B6B5A1CFB689A63FB68DB8F9BB2013BF5
:1039A0009AB2FB68DA8711E0FDF768FD02463B69D1
:1039B000D31A3A689A4203D83B68B3F1FF3F02D169
:1039C0003B68002B02D10323FB754AE0FB68DB8FC9
:1039D0009BB2002BCBD131E0FB681B689B6803F0E6
:1039E0000103012B13D1FB681B68DA68FB689B6B32
:1039F00092B21A80FB689B6B9A1CFB689A63FB6807
:103A0000DB8F9BB2013B9AB2FB68DA8711E0FDF7CE
:103A100035FD02463B69D31A3A689A4203D83B689F
:103A2000B3F1FF3F02D13B68002B02D10323FB75AA
:103A300017E0FB68DB8F9BB2002BCDD13A69396868
:103A4000F86800F053FA0346002B02D0FB682022EE
:103A50005A65FB685B6D002B02D00123FB7500E00B
:103A600000BFFB68012283F85120FB68002283F825
:103A70005020FB7D18461837BD4680BD80B58CB000
:103A800000AFF860B9607A607B800123FB6200239D
:103A900087F82B30FB6893F85030012B01D10223BB
:103AA0008AE1FB68012283F85020FDF7E7FC786289
:103AB000FB6893F8513087F82330FB685B68FB6143
:103AC0007B887B8397F82330012B0FD0FB69B3F5FC
:103AD000827F07D1FB689B68002B03D197F82330C6
:103AE000042B03D0022387F82B305BE1BB68002B4B
:103AF00005D07B68002B02D07B88002B03D10123EB
:103B000087F82B304EE1FB6893F85130DBB2042B81
:103B100003D0FB68052283F85120FB6800225A6518
:103B2000FB687A689A63FB687A88DA87FB687A8828
:103B30009A87FB68BA681A63FB687A88DA86FB683A
:103B40007A889A86FB6800221A64FB6800225A640D
:103B5000FB681B681B6803F04003402B07D0FB6821
:103B60001B681A68FB681B6842F040021A60FB6819
:103B7000DB68B3F5006F78D1FB685B68002B02D07F
:103B80007B8B012B66D1FB681B6B1A88FB681B685B
:103B9000DA60FB681B6B9A1CFB681A63FB68DB8EA0
:103BA0009BB2013B9AB2FB68DA8653E0FB681B6864
:103BB0009B6803F00203022B1BD1FB68DB8E9BB2D8
:103BC000002B16D0FB6A012B13D1FB681B6B1A88E4
:103BD000FB681B68DA60FB681B6B9A1CFB681A6346
:103BE000FB68DB8E9BB2013B9AB2FB68DA8600234E
:103BF000FB62FB681B689B6803F00103012B19D172
:103C0000FB68DB8F9BB2002B14D0FB681B68DA6863
:103C1000FB689B6B92B21A80FB689B6B9A1CFB68DB
:103C20009A63FB68DB8F9BB2013B9AB2FB68DA8731
:103C30000123FB62FDF722FC02467B6AD31ABA6BB2
:103C40009A4207D8BB6BB3F1FF3F03D0032387F839
:103C50002B30A7E0FB68DB8E9BB2002BA6D1FB6864
:103C6000DB8F9BB2002BA1D17CE0FB685B68002B53
:103C700002D07B8B012B6BD1FB681A6BFB681B6836
:103C80000C3312781A70FB681B6B5A1CFB681A63A2
:103C9000FB68DB8E9BB2013B9AB2FB68DA8657E089
:103CA000FB681B689B6803F00203022B1CD1FB68B6
:103CB000DB8E9BB2002B17D0FB6A012B14D1FB6863
:103CC0001A6BFB681B680C3312781A70FB681B6B4D
:103CD0005A1CFB681A63FB68DB8E9BB2013B9AB2ED
:103CE000FB68DA860023FB62FB681B689B6803F0B5
:103CF0000103012B19D1FB68DB8F9BB2002B14D081
:103D0000FB681B68DA68FB689B6BD2B21A70FB68B1
:103D10009B6B5A1CFB689A63FB68DB8F9BB2013B71
:103D20009AB2FB68DA870123FB62FDF7A7FB024624
:103D30007B6AD31ABA6B9A4203D8BB6BB3F1FF3FCD
:103D400002D1BB6B002B03D1032387F82B3029E072
:103D5000FB68DB8E9BB2002BA2D1FB68DB8F9BB292
:103D6000002B9DD17A6AB96BF86800F025F90346FB
:103D7000002B06D0012387F82B30FB6820225A65E0
:103D800010E0FB689B68002B0BD100237B61FB6874
:103D90001B68DB687B61FB681B689B687B617B69D8
:103DA00000E000BFFB68012283F85120FB6800227D
:103DB00083F8502097F82B3018463037BD4680BD29
:103DC00080B483B000AF78607B6893F85130DBB289
:103DD00018460C37BD465DF8047B704780B588B047
:103DE00000AFF860B9603B601346FB71FDF746FB1E
:103DF0000246BB6A9B1A3A681344FB61FDF73EFB1F
:103E0000B861394B1B685B011B0DFA6902FB03F3B8
:103E10007B6154E03B68B3F1FF3F50D0FDF72EFBD0
:103E20000246BB69D31AFA699A4202D9FB69002B90
:103E30003DD1FB681B685A68FB681B6822F0E002F2
:103E40005A60FB685B68B3F5827F11D1FB689B68A1
:103E5000B3F5004F04D0FB689B68B3F5806F07D1C2
:103E6000FB681B681A68FB681B6822F040021A6036
:103E7000FB689B6AB3F5005F0FD1FB681B681A688B
:103E8000FB681B6822F400521A60FB681B681A6802
:103E9000FB681B6842F400521A60FB68012283F839
:103EA0005120FB68002283F85020032317E07B6930
:103EB000002B01D10023FB617B69013B7B61FB6827
:103EC0001B689A68BB681340BA689A420CBF01230A
:103ED0000023DBB21A46FB799A429BD10023184695
:103EE0002037BD4680BD00BF8000002080B586B071
:103EF00002AFF860B9607A60FB685B68B3F5827FF7
:103F000011D1FB689B68B3F5004F04D0FB689B6838
:103F1000B3F5806F07D1FB681B681A68FB681B68E4
:103F200022F040021A60FB685B68B3F5827F2AD1F9
:103F3000FB689B68B3F5806F12D07B680093BB6809
:103F400000228021F868FFF749FF0346002B2DD09F
:103F5000FB685B6D43F02002FB685A65032326E093
:103F60007B680093BB6800220121F868FFF736FFE9
:103F70000346002B1AD0FB685B6D43F02002FB6800
:103F80005A65032313E07B680093BB68002201217C
:103F9000F868FFF723FF0346002B07D0FB685B6D33
:103FA00043F02002FB685A65032300E00023184613
:103FB0001037BD4680BD000080B588B002AFF86004
:103FC000B9607A601B4B1B681B4AA2FB03235B0D85
:103FD0004FF47A7202FB03F37B61FB685B68B3F515
:103FE000827F12D17B680093BB6800228021F86831
:103FF000FFF7F4FE0346002B16D0FB685B6D43F021
:104000002002FB685A6503230FE07B69002B0AD06E
:104010007B69013B7B61FB681B689B6803F0800345
:10402000802BF2D000E000BF002318461837BD46B1
:1040300080BD00BF80000020819F5E1680B485B0E7
:1040400000AF0346FB800023FB60B7F90630842BEA
:1040500005D0B7F90620FB6813440333FB60FB6807
:1040600018461437BD465DF8047B704780B500AF35
:1040700000F0F6FA0023184680BDF0B589B004AF11
:10408000786039607B685B69002B20D07B689B6916
:10409000002B1CD07B685C687B681D687B681E6990
:1040A0007B68B3F908301846FFF7C8FF01467B6804
:1040B0005B697A6892690292019300913B6832468B
:1040C0002946204600F0EDF80346FB601CE07B68C3
:1040D0005C687B681D687B681B699EB27B68B3F96E
:1040E00008301846FFF7AAFF024607F10C030193B8
:1040F00000923B6832462946204600F02FF90346DD
:10410000012B01D0002300E0FB6818461437BD46A0
:10411000F0BD80B584B000AF78607B68FB60FB6861
:10412000002B01D0FB6800E00123184600F064FA80
:10413000002318461037BD4680BD80B483B000AF61
:1041400078607B6803F108027B685A607B684FF0F7
:10415000FF329A607B6803F108027B68DA607B6853
:1041600003F108027B681A617B6800221A6000BFB5
:104170000C37BD465DF8047B704780B483B000AF58
:1041800078607B6800221A6100BF0C37BD465DF87D
:10419000047B704780B485B000AF786039607B687D
:1041A0005B68FB603B68FA685A60FB689A683B682A
:1041B0009A60FB689B683A685A60FB683A689A6044
:1041C0003B687A681A617B681B685A1C7B681A60B6
:1041D00000BF1437BD465DF8047B704780B485B0DE
:1041E00000AF786039603B681B68BB60BB68B3F1A7
:1041F000FF3F03D17B681B69FB600CE07B680833E1
:10420000FB6002E0FB685B68FB60FB685B681B6847
:10421000BA689A42F6D2FB685A683B685A603B68B3
:104220005B683A689A603B68FA689A60FB683A682B
:104230005A603B687A681A617B681B685A1C7B6805
:104240001A6000BF1437BD465DF8047B704780B428
:1042500085B000AF78607B681B69FB607B685B683A
:104260007A6892689A607B689B687A6852685A603C
:10427000FB685B687A689A4203D17B689A68FB683E
:104280005A607B6800221A61FB681B685A1EFB6833
:104290001A60FB681B6818461437BD465DF8047B3E
:1042A000704780B58EB004AFF860B9607A603B604B
:1042B0007B6B002B0AD14FF0500383F31188BFF3BF
:1042C0006F8FBFF34F8F3B6200BFFEE7BB6B002BCE
:1042D0000AD14FF0500383F31188BFF36F8FBFF300
:1042E0004F8FFB6100BFFEE7B4233B613B69B42BFA
:1042F0000AD04FF0500383F31188BFF36F8FBFF3E1
:104300004F8FBB6100BFFEE73B69BB6B002B1ED02C
:104310007B6B002B1BD0BB6B7B627B6A7A6B1A6357
:104320007B6A022283F8B120002303937B6A029305
:1043300007F1140301933B6B00933B687A68B968FB
:10434000F86800F051F8786A00F0ECF801E000231A
:104350007B617B6918462837BD4680BD80B58CB02F
:1043600004AFF860B9603B601346FB80FB889B009C
:10437000184600F011FF78617B69002B0ED0B42045
:1043800000F00AFFF861FB69002B03D0FB697A6932
:104390001A6305E0786900F0CBFF01E00023FB61C0
:1043A000FB69002B17D0FB69002283F8B120FA8843
:1043B00000230393FB690293FB6A0193BB6A00939A
:1043C0003B68B968F86800F00FF8F86900F0AAF8DF
:1043D0000123BB6102E04FF0FF33BB61BB691846AC
:1043E0002037BD4680BD000080B588B000AFF860C2
:1043F000B9607A603B603B6B1A6B7B6803F180436A
:10440000013B9B001344BB61BB6923F00703BB6105
:10441000BB6903F00703002B0AD04FF0500383F36E
:104420001188BFF36F8FBFF34F8F7B6100BFFEE733
:10443000BB68002B1FD00023FB6112E0BA68FB6948
:10444000134419783A6BFB69134434330A461A70E3
:10445000BA68FB6913441B78002B06D0FB69013353
:10446000FB61FB690F2BE9D900E000BF3B6B002229
:1044700083F8432003E03B6B002283F83420BB6ABF
:10448000062B01D90623BB623B6BBA6ADA623B6B2F
:10449000BA6A5A643B6B00229A643B6B0433184639
:1044A000FFF76BFE3B6B18331846FFF766FE3B6B5E
:1044B0003A6B1A61BB6AC3F107023B6B9A613B6BB3
:1044C0003A6B5A623B6B0022C3F8AC203B6B002274
:1044D00083F8B0203B6B4C3360220021184601F07A
:1044E0006BF83B6B0C4A1A653B6B0C4A5A653B6B8D
:1044F0000B4A9A653A68F968B86900F03DFC0246D3
:104500003B6B1A60FB6A002B02D0FB6A3A6B1A60A5
:1045100000BF2037BD4680BD04580008245800085D
:10452000E457000880B582B000AF786000F052FD1B
:104530002A4B1B680133294A1360294B1B68002B47
:1045400009D1274A7B681360244B1B68012B10D1CB
:1045500000F0CCFA0DE0234B1B68002B09D1204B57
:104560001B68DA6A7B68DB6A9A4202D81C4A7B685D
:1045700013601D4B1B6801331B4A13607B68DB6AA9
:1045800001229A40194B1B681343184A13607B6839
:10459000DA6A13469B0013449B00154A1A447B6851
:1045A000043319461046FFF7F5FD00F043FD0D4BAF
:1045B0001B68002B0ED00A4B1B68DA6A7B68DB6A2B
:1045C0009A4207D20B4B4FF080521A60BFF34F8FC5
:1045D000BFF36F8F00BF0837BD4680BDFC050020CC
:1045E000FC04002008060020180600200406002015
:1045F0000005002004ED00E080B584B000AF7860D5
:104600000023FB607B68002B17D0134B1B68002B2B
:104610000AD04FF0500383F31188BFF36F8FBFF3BD
:104620004F8FBB6000BFFEE700F084F80021786880
:1046300000F03CFB00F08CF8F860FB68002B07D121
:10464000064B4FF080521A60BFF34F8FBFF36F8F4E
:1046500000BF1037BD4680BD2406002004ED00E0F9
:1046600080B58AB004AF0023BB6000237B603A466C
:10467000391D07F108031846FBF734FF39687B68DA
:10468000BA68029201930023009300230A4621494D
:104690002148FFF706FE0346204A13601F4B1B68A4
:1046A000002B02D001237B6101E000237B617B6949
:1046B000012B1BD14FF0500383F31188BFF36F8F91
:1046C000BFF34F8F3B6100BF154B1B684C33154A3E
:1046D0001360154B4FF0FF321A60144B01221A6021
:1046E000134B00221A6000F0D3FB0EE07B69B3F19C
:1046F000FF3F0AD14FF0500383F31188BFF36F8F50
:10470000BFF34F8FFB6000BFFEE700BF1837BD4609
:1047100080BD00BFC4570008BD4A00082006002025
:10472000FC040020900000201C0600200806002049
:104730000006002080B400AF044B1B680133034A1D
:10474000136000BFBD465DF8047B7047240600205F
:1047500080B584B000AF0023FB600023BB60414BF9
:104760001B68002B0AD14FF0500383F31188BFF36D
:104770006F8FBFF34F8F3B6000BFFEE700F02AFC56
:10478000384B1B68013B374A1360364B1B68002BC4
:1047900061D1354B1B68002B5DD02EE0334BDB68BD
:1047A000DB68FB60FB6818331846FFF750FDFB68B9
:1047B00004331846FFF74BFDFB68DB6A01229A4081
:1047C0002B4B1B6813432A4A1360FB68DA6A1346B3
:1047D0009B0013449B00274A1A44FB680433194684
:1047E0001046FFF7D7FCFB68DA6A234B1B68DB6ACD
:1047F0009A4202D3214B01221A601C4B1B68002BEA
:10480000CCD1FB68002B01D000F012FA1C4B1B68C6
:104810007B607B68002B10D000F036F80346002B3D
:1048200002D0164B01221A607B68013B7B607B68DB
:10483000002BF1D1124B00221A60104B1B68002B89
:1048400009D00123BB600F4B4FF080521A60BFF3B9
:104850004F8FBFF36F8F00F0EDFBBB68184610372A
:10486000BD4680BD24060020FC050020BC050020BC
:104870000406002000050020FC0400201006002093
:104880000C06002004ED00E080B586B000AF0023E8
:104890007B614E4B1B68002B40F08E804C4B1B689D
:1048A00001333B614A4A3B6913603B69002B20D1CD
:1048B000484B1B681B68002B0AD04FF0500383F352
:1048C0001188BFF36F8FBFF34F8F3B6000BFFEE7D0
:1048D000404B1B68FB60404B1B683E4A13603E4ADE
:1048E000FB6813603D4B1B6801333C4A136000F0CA
:1048F0009FF93B4B1B683A699A4248D3354B1B687A
:104900001B68002B04D1364B4FF0FF321A603EE09B
:10491000304B1B68DB68DB68BB60BB685B687B6037
:104920003A697B689A4203D22D4A7B6813602EE075
:10493000BB6804331846FFF78AFCBB689B6A002BF0
:1049400004D0BB6818331846FFF781FCBB68DB6AEC
:1049500001229A40234B1B681343224A1360BB6811
:10496000DA6A13469B0013449B001F4A1A44BB6833
:10497000043319461046FFF70DFCBB68DA6A1B4B7F
:104980001B68DB6A9A42B9D301237B61B6E7174BF8
:104990001B68DA6A144913469B0013449B000B44BE
:1049A0001B68012B01D901237B61114B1B68002B74
:1049B00007D001237B6104E00E4B1B6801330D4AD5
:1049C00013607B6918461837BD4680BD2406002059
:1049D00000060020B4050020B805002014060020C1
:1049E0001C0600200406002000050020FC04002016
:1049F000100600200C06002080B487B000AF294BC1
:104A00001B68002B03D0284B01221A6044E0264B80
:104A100000221A60254B1B68FB60FB68B3FA83F326
:104A2000FB72FB7AC3F11F037B6121497A6913464C
:104A30009B0013449B000B441B68002B0AD14FF0D2
:104A4000500383F31188BFF36F8FBFF34F8F7B60E9
:104A500000BFFEE77A6913469B0013449B00144A8B
:104A600013443B613B695B685A683B695A603B6928
:104A70005A683B6908339A4204D13B695B685A68BB
:104A80003B695A603B695B68DB680A4A1360094B03
:104A90001B684C33084A136000BF1C37BD465DF8E5
:104AA000047B704724060020100600200406002026
:104AB00000050020FC0400209000002080B582B09A
:104AC00000AF786000F052F8064B1B68012BF9D953
:104AD000054B4FF080521A60BFF34F8FBFF36F8FBB
:104AE000F0E700BF0005002004ED00E080B582B0D3
:104AF00000AF00237B600CE07A6813469B001344F0
:104B00009B00124A13441846FFF717FB7B680133DA
:104B10007B607B68062BEFD90D48FFF70EFB0D4835
:104B2000FFF70BFB0C48FFF708FB0C48FFF705FBF2
:104B30000B48FFF702FB0B4B054A1A600A4B054A6C
:104B40001A6000BF0837BD4680BD00BF00050020C9
:104B50008C050020A0050020BC050020D005002009
:104B6000E8050020B4050020B805002080B582B01B
:104B700000AF19E000F02EFA104BDB68DB687B60B9
:104B80007B6804331846FFF762FB0D4B1B68013B43
:104B90000B4A13600B4B1B68013B0A4A136000F081
:104BA00049FA786800F010F8064B1B68002BE1D139
:104BB00000BF00BF0837BD4680BD00BFD005002044
:104BC000FC050020E405002080B584B000AF7860CB
:104BD0007B684C33184600F005FD7B6893F8B130D4
:104BE000002B08D17B681B6B184600F0A1FB78688E
:104BF00000F09EFB18E07B6893F8B130012B03D1E5
:104C0000786800F095FB0FE07B6893F8B130022BD9
:104C10000AD04FF0500383F31188BFF36F8FBFF3B7
:104C20004F8FFB6000BFFEE700BF1037BD4680BD61
:104C300080B483B000AF0C4B1B681B68002B04D101
:104C40000A4B4FF0FF321A6008E0074B1B68DB6825
:104C5000DB687B607B685B68044A136000BF0C37CD
:104C6000BD465DF8047B7047B40500201C0600209B
:104C700080B483B000AF0B4B1B68002B02D1012323
:104C80007B6008E0084B1B68002B02D102237B608D
:104C900001E000237B607B6818460C37BD465DF859
:104CA000047B7047080600202406002080B584B0ED
:104CB00000AF78603960294B1B68FB60284B1B688C
:104CC00004331846FFF7C3FA0346002B0BD1244BDD
:104CD0001B68DB6A012202FA03F3DA43214B1B68EB
:104CE0001340204A13607B68B3F1FF3F0AD13B6851
:104CF000002B07D01A4B1B68043319461A48FFF7DC
:104D000049FA26E0FA687B681344BB60144B1B68C1
:104D1000BA685A60BA68FB689A4209D2134B1A689B
:104D20000F4B1B68043319461046FFF757FA10E083
:104D30000F4B1A680A4B1B68043319461046FFF7DD
:104D40004DFA0C4B1B68BA689A4202D2094ABB68FA
:104D5000136000BF1037BD4680BD00BF00060020B5
:104D6000FC04002004060020E8050020B80500200F
:104D7000B40500201C06002080B485B000AFF860A8
:104D8000B9607A60FB68043BFB60FB684FF080729F
:104D90001A60FB68043BFB60BB6823F00102FB6800
:104DA0001A60FB68043BFB600C4AFB681A60FB68F6
:104DB000143BFB607A68FB681A60FB68043BFB608D
:104DC000FB686FF002021A60FB68203BFB60FB6827
:104DD00018461437BD465DF8047B7047E14D000866
:104DE00080B485B000AF00237B60124B1B68B3F129
:104DF000FF3F0AD04FF0500383F31188BFF36F8F4A
:104E0000BFF34F8FFB6000BFFEE74FF0500383F30B
:104E10001188BFF36F8FBFF34F8FBB6000BF00BF20
:104E20007B68002BFCD000BF00BF1437BD465DF887
:104E3000047B70478C000020000000000000000090
:104E4000074B19680868B0E8F04F80F30988BFF392
:104E50006F8F4FF0000080F311887047AFF3008030
:104E6000FC04002000BF00BF08480068006880F311
:104E700008884FF0000080F3148862B661B6BFF373
:104E80004F8FBFF36F8F00DF00BF00BF08ED00E062
:104E900080B586B000AF464B1B68464A93420AD1A4
:104EA0004FF0500383F31188BFF36F8FBFF34F8F21
:104EB0003B6100BFFEE73E4B1B683F4A93420AD16D
:104EC0004FF0500383F31188BFF36F8FBFF34F8F01
:104ED000FB6000BFFEE7394B7B617B691B78DBB26F
:104EE0007B607B69FF221A707B691B78DBB2FB70E9
:104EF000FB78DBB203F05003DAB2314B1A70314B5E
:104F000007221A6009E02F4B1B68013B2D4A1360F2
:104F1000FB78DBB25B00DBB2FB70FB78DBB203F04B
:104F20008003802BEFD0274B1B68C3F10703042BB2
:104F30000AD04FF0500383F31188BFF36F8FBFF394
:104F40004F8FBB6000BFFEE71E4B1B681B021D4A54
:104F500013601C4B1B6803F4E0631A4A13607B6800
:104F6000DAB27B691A70184B1B68174A43F4700356
:104F70001360154B1B68144A43F07043136000F034
:104F8000DDF8124B00221A6000F0FCF8104B1B6891
:104F90000F4A43F040431360FFF766FFFFF72CFD15
:104FA000FFF71EFF002318461837BD4680BD00BF1F
:104FB00000ED00E071C20F4170C20F4100E400E05B
:104FC000280600202C06002020ED00E08C000020A8
:104FD00034EF00E080B483B000AF4FF0500383F3B0
:104FE0001188BFF36F8FBFF34F8F7B6000BF0F4BF4
:104FF0001B6801330D4A13600C4B1B68012B0FD14A
:105000000B4B1B68DBB2002B0AD04FF0500383F32D
:105010001188BFF36F8FBFF34F8F3B6000BFFEE778
:1050200000BF0C37BD465DF8047B70478C00002044
:1050300004ED00E080B483B000AF124B1B68002B7E
:105040000AD14FF0500383F31188BFF36F8FBFF382
:105050004F8F7B6000BFFEE70A4B1B68013B094A8C
:105060001360084B1B68002B05D100233B603B6895
:1050700083F3118800BF00BF0C37BD465DF8047B89
:10508000704700BF8C0000200000000000000000FE
:10509000EFF30980BFF36F8F154B1A681EF0100FE6
:1050A00008BF20ED108A20E9F04F10602DE90900BB
:1050B0004FF0500080F31188BFF34F8FBFF36F8F15
:1050C000FFF79AFC4FF0000080F3118809BC1968C3
:1050D0000868B0E8F04F1EF0100F08BFB0EC108A5F
:1050E00080F30988BFF36F8F704700BFAFF3008074
:1050F000FC04002000BF00BF80B582B000AF4FF0BD
:10510000500383F31188BFF36F8FBFF34F8F7B6022
:1051100000BFFFF7B9FB0346002B03D0064B4FF04F
:1051200080521A6000233B603B6883F3118800BF04
:1051300000BF0837BD4680BD04ED00E080B400AF7D
:105140000B4B00221A600B4B00221A600A4B1B68A3
:105150000A4AA2FB03239B09094A013B1360044B43
:1051600007221A6000BFBD465DF8047B704700BF90
:1051700010E000E018E000E080000020D34D621055
:1051800014E000E0DFF80C00016841F470010160F8
:10519000704700BF88ED00E080B58AB000AF78604E
:1051A0000023FB61FFF7C6FA5B4B1B68002B01D1A4
:1051B00000F020F9594B1A687B681340002B40F02F
:1051C00093807B68002B1DD008227B6813447B6092
:1051D0007B6803F00703002B14D07B6823F00703E0
:1051E00008337B607B6803F00703002B0AD04FF085
:1051F000500383F31188BFF36F8FBFF34F8F7B6131
:1052000000BFFEE77B68002B6ED0454B1B687A68B9
:105210009A4269D8434B3B62424B1B687B6204E075
:105220007B6A3B627B6A1B687B627B6A5B687A682D
:105230009A4203D97B6A1B68002BF1D1364B1B685D
:105240007A6A9A4250D03B6A1B6808221344FB6179
:105250007B6A1A683B6A1A607B6A5A687B68D21A52
:1052600008235B009A421FD97A6A7B681344BB61AA
:10527000BB6903F00703002B0AD04FF0500383F300
:105280001188BFF36F8FBFF34F8F3B6100BFFEE705
:105290007B6A5A687B68D21ABB695A607B6A7A68F3
:1052A0005A60B86900F008F91D4B1A687B6A5B68A0
:1052B000D31A1B4A13601A4B1A681B4B1B689A427D
:1052C00003D2174B1B68184A13607B6A5A68134B4A
:1052D0001B681A437B6A5A607B6A00221A60134B70
:1052E0001B680133114A1360FFF732FAFB6903F0C0
:1052F0000703002B0AD04FF0500383F31188BFF34C
:105300006F8FBFF34F8FFB6000BFFEE7FB6918464E
:105310002837BD4680BD00BF384200204C420020E7
:105320003C42002030420020404200204442002005
:1053300080B586B000AF78607B687B617B68002BAE
:105340004DD008235B427A6913447B617B693B61E2
:105350003B695A68244B1B681340002B0AD14FF05D
:10536000500383F31188BFF36F8FBFF34F8FFB6040
:1053700000BFFEE73B691B68002B0AD04FF05003CB
:1053800083F31188BFF36F8FBFF34F8FBB6000BFF4
:10539000FEE73B695A68144B1B681340002B1ED074
:1053A0003B691B68002B1AD13B695A680E4B1B687E
:1053B000DB431A403B695A60FFF7BCF93B695A6806
:1053C0000A4B1B681344094A1360386900F074F8EB
:1053D000074B1B680133064A1360FFF7B9F900BF9A
:1053E0001837BD4680BD00BF4C4200203C42002023
:1053F0004842002080B485B000AF4FF47053BB60CA
:10540000274BFB60FB6803F00703002B0CD0FB6805
:105410000733FB60FB6823F00703FB60BA68FB6897
:10542000D31A1F4A1344BB60FB687B601D4A7B682C
:1054300013601C4B00225A607B68BA681344FB60FF
:105440000822FB689B1AFB60FB6823F00703FB60E4
:10545000FB68154A1360144B1B6800225A60124BFC
:105460001B6800221A607B683B603B68FA68D21AAE
:105470003B685A600C4B1A683B681A603B685B6873
:105480000A4A13603B685B68094A1360094B4FF096
:1054900000421A6000BF1437BD465DF8047B7047B8
:1054A00030060020304200203842002040420020D8
:1054B0003C4200204C42002080B485B000AF7860B0
:1054C000284BFB6002E0FB681B68FB60FB681B6805
:1054D0007A689A42F7D8FB68BB60FB685B68BA6879
:1054E00013447A689A4208D1FB685A687B685B6803
:1054F0001A44FB685A60FB687B607B68BB607B6812
:105500005B68BA681A44FB681B689A4218D1FB684A
:105510001A68154B1B689A420DD07B685A68FB6865
:105520001B685B681A447B685A60FB681B681A68D2
:105530007B681A6008E00C4B1A687B681A6003E00D
:10554000FB681A687B681A60FA687B689A4202D026
:10555000FB687A681A6000BF1437BD465DF8047BAB
:10556000704700BF304200203842002070B50D4D1A
:105570000D4C641BA4100026A64209D10B4D0C4C07
:1055800000F0E4F8641BA4100026A64205D170BD0B
:1055900055F8043B98470136EEE755F8043B984729
:1055A0000136F2E74C5800084C5800084C580008E7
:1055B000505800087047704702440346934200D198
:1055C000704703F8011BF9E738B50C460968054632
:1055D00009B1FFF7F9FF21462846BDE8384000F041
:1055E00069B800002C4B1B68834270B5044651D04B
:1055F000436A43B1DB68002B4AD1636A196811B171
:10560000204600F057F8616911B1204600F052F8C9
:10561000616A11B1204600F04DF8A16B11B120462E
:1056200000F048F8E16B11B1204600F043F8216C1E
:1056300011B1204600F03EF8E16D11B1204600F0B6
:1056400039F8A16D11B1204600F034F8616B11B149
:10565000204600F02FF8A369E3B1A36A20469847DB
:10566000A16CB9B12046BDE87040FFF7ADBF495904
:1056700041B90435636A802DD968F8D1204600F01D
:1056800019F8BAE70E68204600F014F83146EFE743
:105690000025EFE770BD00BF900000200148FFF734
:1056A00089BF00BF504200200148FFF784BF00BF00
:1056B0005042002037B5002944D051F8043C0190F5
:1056C000002BA1F10404B8BFE418FFF7E7FF1E4A5E
:1056D0000198136833B96360146003B0BDE83040CB
:1056E000FFF7E2BFA34208D9256861198B4201BFC9
:1056F00019685B6849192160EDE71A465B680BB1D0
:10570000A342FAD911685518A5420BD12468214447
:105710005418A3421160E0D11C685B6853602144B7
:105720001160DAE702D90C230360D6E72568611916
:105730008B4204BF19685B68636004BF491921602C
:105740005460CAE703B030BD54420020F8B500BF32
:10575000F8BC08BC9E467047F8B500BFF8BC08BC52
:045760009E467047AA
:1057640064656661756C745461736B006D79546122
:10577400736B30320000000064570008E50700082E
:105784000000000000000000800000000000000095
:105794000000000070570008A10800080200000083
:1057A4000000000080000000000000000000000075
:1057B400E7E7E7E7E7000000C2C2C2C2C200000098
:1057C40049444C45000000000000000000000000B7
:1057D4000102030406070809000610160006101645
:1057E40000000000000000000000000000000000B5
:1057F40000000000000000000000000000000000A5
:105804000000000000000000000000000000000094
:105814000000000000000000000000000000000084
:105824000000000000000000000000000000000074
:105834000000000000000000000000000000000064
:08584400CCA9FF7F0100000068
:04584C00C50100088A
:04585000A1010008AA
:10585400EADDCCBBAA000000493738343800000028
:105864000000000000000000000000000000000034
:105874003444373839000000000000000000000004
:1058840000000000000000003539413137000000FD
:105894000000000000000000000000000000000004
:1058A40033363752330000000000000000000000CF
:1058B40000000000000000003132333550000000C9
:1058C40000000000000000000000000000000000D4
:1058D4000024F4001000000001000000AAAAAAAAF3
:1058E4009400002000000000045800082458000818
:1058F400E457000800000000000000000000000061
:105904000000000000000000000000000000000093
:105914000000000000000000000000000000000083
:105924000000000000000000000000000000000073
:105934000000000000000000000000000000000063
:04594400000000005F
:040000050800135D7F
:00000001FF
