:020000040800F2
:1000000000000220DD1500085115000857150008F2
:100010005D15000863150008691500080000000060
:100020000000000000000000000000006F15000844
:100030007D150008000000008B15000899150008C8
:100040002D1600082D1600082D1600082D16000884
:100050002D1600082D1600082D1600082D16000874
:100060002D1600082D1600082D1600082D16000864
:100070002D1600082D1600082D1600082D16000854
:100080002D1600082D1600082D160008000000008F
:100090000000000000000000000000002D16000815
:1000A0002D1600082D1600082D1600082D16000824
:1000B0002D1600082D1600082D1600082D16000814
:1000C0002D1600082D1600082D1600082D16000804
:1000D000A51500082D1600082D16000800000000C8
:1000E0002D1600082D1600082D160008000000002F
:1000F0000000000000000000000000002D160008B5
:10010000000000002D1600082D1600082D1600080E
:1001100000000000000000000000000000000000DF
:100120002D1600082D1600082D1600082D160008A3
:100130002D16000800000000000000000000000074
:100140000000000000000000000000002D16000864
:100150002D1600082D1600082D1600082D16000873
:100160002D1600082D1600080000000000000000F9
:10017000000000000000000000000000000000007F
:10018000000000002D160008000000000000000024
:080190002D1600082D160008D1
:1001980010B5054C237833B9044B13B10448AFF3B9
:1001A80000800123237010BD2C00002000000000F7
:1001B800203C000808B5034B1BB103490348AFF3C3
:1001C800008008BD0000000030000020203C00082E
:1001D80053B94AB9002908BF00281CBF4FF0FF31A6
:1001E8004FF0FF3000F074B9ADF1080C6DE904CEA2
:1001F80000F006F8DDF804E0DDE9022304B07047FA
:100208002DE9F047089D04468E46002B4DD18A42C1
:10021800944669D9B2FA82F252B101FA02F3C2F1F4
:10022800200120FA01F10CFA02FC41EA030E944085
:100238004FEA1C48210CBEFBF8F61FFA8CF708FBA6
:1002480016E341EA034306FB07F199420AD91CEB7E
:10025800030306F1FF3080F01F81994240F21C81B0
:10026800023E63445B1AA4B2B3FBF8F008FB1033F8
:1002780044EA034400FB07F7A7420AD91CEB04042D
:1002880000F1FF3380F00A81A74240F207816444FD
:10029800023840EA0640E41B00261DB1D440002382
:1002A800C5E900433146BDE8F0878B4209D9002DE6
:1002B80000F0EF800026C5E9000130463146BDE870
:1002C800F087B3FA83F6002E4AD18B4202D38242DA
:1002D80000F2F980841A61EB030301209E46002D89
:1002E800E0D0C5E9004EDDE702B9FFDEB2FA82F2DE
:1002F800002A40F09280A1EB0C014FEA1C471FFA3C
:100308008CFE0126200CB1FBF7F307FB131140EA22
:1003180001410EFB03F0884208D91CEB010103F1EF
:10032800FF3802D2884200F2CB804346091AA4B2B1
:10033800B1FBF7F007FB101144EA01440EFB00FE85
:10034800A64508D91CEB040400F1FF3102D2A645EA
:1003580000F2BB800846A4EB0E0440EA03409CE789
:10036800C6F12007B34022FA07FC4CEA030C20FA36
:1003780007F401FA06F31C43F9404FEA1C4900FA56
:1003880006F3B1FBF9F8200C1FFA8CFE09FB1811D3
:1003980040EA014108FB0EF0884202FA06F20BD946
:1003A8001CEB010108F1FF3A80F08880884240F296
:1003B8008580A8F102086144091AA4B2B1FBF9F0DA
:1003C80009FB101144EA014100FB0EFE8E4508D9D5
:1003D8001CEB010100F1FF346CD28E456AD902385A
:1003E800614440EA0840A0FB0294A1EB0E01A1423F
:1003F800C846A64656D353D05DB1B3EB080261EBAD
:100408000E0101FA07F722FA06F3F1401F43C5E986
:10041800007100263146BDE8F087C2F12003D840BC
:100428000CFA02FC21FA03F3914001434FEA1C47FE
:100438001FFA8CFEB3FBF7F007FB10360B0C43EAF0
:10044800064300FB0EF69E4204FA02F408D91CEBA0
:10045800030300F1FF382FD29E422DD9023863449E
:100468009B1B89B2B3FBF7F607FB163341EA03413E
:1004780006FB0EF38B4208D91CEB010106F1FF388D
:1004880016D28B4214D9023E6144C91A46EA004684
:1004980038E72E46284605E70646E3E61846F8E616
:1004A8004B45A9D2B9EB020864EB0C0E0138A3E75F
:1004B8004646EAE7204694E74046D1E7D0467BE740
:1004C800023B614432E7304609E76444023842E7B8
:1004D800704700BF80B582B000AF01F0A5F800F00A
:1004E8006DF800F0C9F800F01FF900F099F900F074
:1004F80049FA00F011FA2A4B2A4A9A60284B8022BE
:100508009A81274B274A1A60254B4FF480529A80CC
:10051800234B244A1A61224B01229A82204B224AF9
:100528009A611F4800F05FFB00211D4800F095FB11
:1005380003211B4800F0DCFB162300221B49184846
:1005480000F096FC162301221949154800F090FC8A
:10055800162302221749124800F08AFC16230322A8
:1005680015490F4800F084FC03210D4800F02EFCCB
:1005780000237B600DE07B68DBB21946084800F079
:100588000BFD0346012B01D100F02AFA7B680133E9
:100598007B607B68032BEEDD0A2001F0B7F8E7E704
:1005A8004C01002000040240480000200000002008
:1005B80008000020180000201000002080B594B02A
:1005C80000AF07F1200330220021184603F01CFB7E
:1005D80007F10C0300221A605A609A60DA601A6107
:1005E8000023BB60224B1B6C214A43F080531364E9
:1005F8001F4B1B6C03F08053BB60BB6800237B6000
:100608001C4B1B681B4A43F440431360194B1B687F
:1006180003F440437B607B6802233B620123FB6257
:1006280010233B630023BB6307F12003184601F046
:1006380063FB0346002B01D000F0D0FA0F23FB60C8
:1006480000233B6100237B610023BB610023FB6126
:1006580007F10C030021184601F0C6FD0346002BE4
:1006680001D000F0BBFA00BF5037BD4680BD00BFC7
:10067800003802400070004080B58AB000AF07F132
:10068800200300221A605A603B1D00221A605A603B
:100698009A60DA601A615A619A61224B4FF080427F
:1006A8001A60204B00225A601E4B00229A601D4B94
:1006B8004FF0FF32DA601B4B00221A61194B0022FF
:1006C8009A61184802F010FE0346002B01D000F092
:1006D80085FA00233B6200237B6207F12003194659
:1006E800104803F0FFF90346002B01D000F076FA1A
:1006F80060237B600023BB600023FB6000237B61D9
:100708003B1D04221946074802F0F8FE0346002B59
:1007180001D000F063FA034800F0DEFE00BF28377E
:10072800BD4680BDA000002080B588B000AF00F0B5
:100738007BFFFFF743FF07F10C0300221A605A60A2
:100748009A60DA601A610023BB60314B1B6B304A38
:1007580043F0010313632E4B1B6B03F00103BB60D3
:10076800BB680123FB6002233B6100237B610223FA
:10077800BB610123FB6107F10C031946254801F011
:100788001DF900237B60224B1B6C214A43F00103B7
:1007980013641F4B1B6C03F001037B607B681E4BCB
:1007A8004FF080421A601C4B00225A601A4B0022FC
:1007B8009A60194B4FF6FF72DA60174B00221A61E4
:1007C800154802F091FD0346002B01D000F006FA0F
:1007D800124B60221A60114B4FF6FF725A600F4B92
:1007E80000229A600D4B00221A6100220B490A4828
:1007F80002F084FE0346002B01D000F0EFF900213F
:10080800054802F0CBFD00BF2037BD4680BD00BFC4
:100818000038024000000240A00000203001002003
:1008280080B588B000AF00F0FFFEFFF7C7FE07F104
:100838000C0300221A605A609A60DA601A61002379
:10084800BB60304B1B6B2F4A43F0010313632D4BE6
:100858001B6B03F00103BB60BB680423FB6002232E
:100868003B6100237B610223BB610323FB6107F12A
:100878000C031946244801F0A1F800237B60214BA2
:100888005B6C204A43F4803353641E4B5B6C03F467
:1008980080337B607B681D4B1D4A1A601B4B00220E
:1008A8005A601A4B00229A60184B4FF6FF72DA60B2
:1008B800164B00221A61154802F016FD0346002B5C
:1008C80001D000F08BF9134B60221A60114B4FF6E0
:1008D800FF725A600F4B00229A600E4B00221A6179
:1008E80000220C49094802F009FE0346002B01D0FA
:1008F80000F074F90021054802F050FD00BF2037D0
:10090800BD4680BD0038024000000240E8000020DB
:10091800004001403001002080B500AF174B184A55
:100928001A60164B4FF482725A60144B00229A6078
:10093800124B0022DA60114B00221A610F4B002281
:100948005A610E4B4FF400729A610C4B0022DA6127
:100958000A4B00221A62094B00225A62074B0022F6
:100968009A62064B0722DA62044801F0E9FD034661
:10097800002B01D000F032F900BF80BD48000020F4
:100988000038004080B586B000AF3B1D00221A60D9
:100998005A609A60DA601A6100233B600E4B1B6B49
:1009A8000D4A43F0020313630B4B1B6B03F0020366
:1009B8003B603B6841F28D337B600123BB600023C1
:1009C800FB6000233B613B1D1946044800F0F6FF1D
:1009D80000BF1837BD4680BD003802400004024001
:1009E80080B500AF16221249124800F005FB104BE3
:1009F8001B78492B01D100F041F80D4B5B78442B53
:100A080001D100F065F80A4B9B78412B01D100F029
:100A180089F8074BDB78522B01D100F0ADF8044B75
:100A28001B79502B01D100F0D1F800BF80BD00BF69
:100A38006C0100204C01002080B500AF01224FF46A
:100A48008071054801F03EF900224FF40071024818
:100A580001F038F900BF80BD0004024080B500AF46
:100A680000220421044801F02DF90122082102483E
:100A780001F028F900BF80BD0004024080B500AF36
:100A8800FFF7DAFFFFF7EAFF00BF80BD80B500AFD0
:100A980000224FF48071054801F014F901224FF447
:100AA8000071024801F00EF900BF80BD0004024049
:100AB80080B500AF00220421044801F003F90022A8
:100AC8000821024801F0FEF800BF80BD0004024082
:100AD80080B500AFFFF7DAFFFFF7EAFF00BF80BD80
:100AE80080B500AF00224FF48071054801F0EAF8A4
:100AF80000224FF40071024801F0E4F800BF80BD05
:100B08000004024080B500AF01220421044801F02E
:100B1800D9F800220821024801F0D4F800BF80BDAE
:100B28000004024080B500AFFFF7DAFFFFF7EAFFE5
:100B380000BF80BD80B500AF00224FF4807105482A
:100B480001F0C0F801224FF40071024801F0BAF830
:100B580000BF80BD0004024080B500AF012204211F
:100B6800044801F0AFF800220821024801F0AAF871
:100B780000BF80BD0004024080B500AFFFF7DAFF78
:100B8800FFF7EAFF00BF80BD80B500AF00224FF439
:100B98008071054801F096F800224FF40071024870
:100BA80001F090F800BF80BD0004024080B500AF9E
:100BB80000220421044801F085F800220821024897
:100BC80001F080F800BF80BD0004024080B500AF8E
:100BD800FFF7DAFFFFF7EAFF00BF80BD80B400AF80
:100BE80072B600BFFEE780B582B000AF7860786863
:100BF80000F054FA00220021786800F07FFA7B6840
:100C08000022DA7700220121786800F077FA0022C2
:100C18000221786800F072FA03220321786800F054
:100C28006DFA00220421786800F068FA00217868DB
:100C380000F013F80321786800F05AF86421786806
:100C480000F0AEF80121786800F0C0F8786800F08C
:100C580015FA00BF0837BD4680BD80B584B000AF27
:100C680078600B46FB70786800F018FA06217868FF
:100C780000F0ABFA0346FB73FB78022B1ED0022B65
:100C880028DC002B02D0012B0CD023E0FB7B43F0A7
:100C98002003FB73FB7B23F00803FB737B680022B4
:100CA8005A7718E0FB7B23F02003FB73FB7B23F0D0
:100CB8000803FB737B6801225A770CE0FB7B23F067
:100CC8002003FB73FB7B43F00803FB737B68022262
:100CD8005A7700E000BFFB7B1A460621786800F0CF
:100CE8000DFA786800F0CAF900BF1037BD4680BD1C
:100CF80080B584B000AF78600B46FB70786800F070
:100D0800CDF90621786800F060FA0346FB73FB789A
:100D1800032B37D801A252F823F000BF350D000885
:100D28004D0D0008650D00087D0D0008FB7B23F0C4
:100D38000403FB73FB7B23F00203FB737B68002235
:100D48001A7720E0FB7B23F00403FB73FB7B43F063
:100D58000203FB737B6801221A7714E0FB7B43F0E4
:100D68000403FB73FB7B23F00203FB737B68022203
:100D78001A7708E0FB7B43F00603FB737B680322CA
:100D88001A7700E000BFFB7B1A460621786800F05E
:100D9800B5F9786800F072F900BF1037BD4680BD1C
:100DA80080B582B000AF78600B46FB70786800F0C1
:100DB80075F9FB781A460521786800F09FF978687C
:100DC80000F05CF900BF0837BD4680BD80B584B02F
:100DD80000AF78600B46FB700021786800F0F5F9E9
:100DE8000346FB73FB78032B37D801A252F823F094
:100DF800090E0008190E00082F0E00084D0E0008F5
:100E0800FB7B23F00203FB737B6800229A7725E0C3
:100E1800786800F043F9FB7B43F00203FB737B68BF
:100E280001229A771AE0786800F028F9FB7B43F0F2
:100E38000203FB73FB7B23F00103FB737B68022235
:100E48009A770BE0786800F019F9FB7B43F003030D
:100E5800FB737B6803229A7700E000BFFB7B1A468E
:100E68000021786800F04AF900BF1037BD4680BD00
:100E780080B586B000AFF860B96011461A460B46D7
:100E8800FB711346BB71F86800F008F90721F86890
:100E980000F0EAF90221F86800F097F90346FB75BB
:100EA800FB79012202FA03F35AB297F91730134378
:100EB8005BB2FB75FB7D1A460221F86800F01EF94B
:100EC800FB79052B60D801A252F823F0ED0E00083B
:100ED800070F0008210F00083D0F0008590F0008F0
:100EE800750F00080523BA680A21F86800F031F97F
:100EF800BB791A461121F86800F000F945E005238E
:100F0800BA680B21F86800F024F9BB791A46122157
:100F1800F86800F0F3F838E0BB681B781A460C2133
:100F2800F86800F0EBF8BB791A461321F86800F06E
:100F3800E5F82AE0BB681B781A460D21F86800F02E
:100F4800DDF8BB791A461421F86800F0D7F81CE0E0
:100F5800BB681B781A460E21F86800F0CFF8BB79F9
:100F68001A461521F86800F0C9F80EE0BB681B782E
:100F78001A460F21F86800F0C1F8BB791A46162105
:100F8800F86800F0BBF800E000BFF86800F076F8F9
:100F980000BF1837BD4680BD80B584B000AF78600B
:100FA8000B46FB700721786800F00FF90346FB73C6
:100FB800FB7B402B09D1FB78002B06D1402207216F
:100FC800786800F09BF8012312E0FB7B03F04003F4
:100FD800002B0CD0FA7BFB785B001340002B06D06B
:100FE80040220721786800F089F8012300E00023F7
:100FF80018461037BD4680BD80B586B000AFF86092
:10100800B9601346FB710023FB75F86800F056F8C9
:101018006123FB75FB68986907F1170164230122B6
:1010280001F017FB00BFFB689B69184602F00AF83D
:101038000346012BF7D1FB689869FB799AB24FF404
:10104800FA63B96801F041FC00BFFB689B69184668
:1010580001F0F8FF0346012BF7D1F86800F03EF8DD
:10106800012000F053FBE223FB75FB7D1946F8686D
:1010780000F0D8F800BF1837BD4680BD80B582B0F3
:1010880000AF78607B6898687B689B890122194665
:1010980000F018FE00BF0837BD4680BD80B582B09D
:1010A80000AF78607B6898687B689B890022194646
:1010B80000F008FE00BF0837BD4680BD80B582B08D
:1010C80000AF78607B6818687B689B8800221946A7
:1010D80000F0F8FD00BF0837BD4680BD80B582B07E
:1010E80000AF78607B6818687B689B880122194686
:1010F80000F0E8FD00BF0837BD4680BD80B584B06C
:1011080000AF78600B46FB701346BB70FB7843F06A
:101118002003DBB23B73BB787B737868FFF7CEFFA5
:101128007B68986907F10C014FF4FA63022201F019
:1011380090FA00BF7B689B69184601F083FF03465D
:10114800012BF7D17868FFF7C9FF00BF1037BD46FC
:1011580080BD80B586B000AFF8607A601A460B464D
:10116800FB7213463B81FB7A43F02003DBB23B75ED
:10117800F868FFF7A3FFFB68986907F114014FF4BB
:10118800FA63012201F065FA00BFFB689B69184603
:1011980001F058FF0346012BF7D1FB6898693A899B
:1011A8004FF4FA63796801F054FA00BFFB689B6951
:1011B800184601F047FF0346012BF7D1F868FFF7FF
:1011C8008DFF00BF1837BD4680BD80B584B000AF25
:1011D80078600B46FB700023FB737868FFF76EFF9F
:1011E8007B689869F91C4FF4FA63012201F031FA1F
:1011F80000BF7B689B69184601F024FF0346012B5A
:10120800F7D17B68986907F10F014FF4FA6301225F
:1012180001F05BFB7868FFF761FFFB7B184610372E
:10122800BD4680BD80B582B000AF78600B46FB70CC
:101238007868FFF743FF7B689869F91C4FF4FA63F5
:10124800012201F006FA00BF7B689B69184601F08D
:10125800F9FE0346012BF7D17868FFF73FFF00BF7F
:101268000837BD4680BD000080B588B000AF786003
:101278000B46FB70FB78072B05D100220721786805
:10128800FFF73CFFA8E0FB78172B05D111221721A7
:101298007868FFF733FF9FE0082200217868FFF79E
:1012A8002DFF3F2201217868FFF728FF0322022142
:1012B8007868FFF723FF032203217868FFF71EFFF2
:1012C800032204217868FFF719FF022205217868B4
:1012D800FFF714FF0E2206217868FFF70FFF0022A0
:1012E80007217868FFF70AFF002208217868FFF7CE
:1012F80005FF002209217868FFF700FF384A07F147
:10130800180392E8030018600433197007F11802F3
:1013180005230A217868FFF71CFF324A07F11003FA
:1013280092E8030018600433197007F110020523CE
:101338000B217868FFF70DFFC3220C217868FFF7AF
:10134800DDFEC4220D217868FFF7D8FEC5220E21E4
:101358007868FFF7D3FEC6220F217868FFF7CEFE24
:101368001F4A07F1080392E8030018600433197054
:1013780007F10802052310217868FFF7EAFE00222A
:1013880011217868FFF7BAFE002212217868FFF76A
:10139800B5FE002213217868FFF7B0FE0022142161
:1013A8007868FFF7ABFE002215217868FFF7A6FEE4
:1013B800002216217868FFF7A1FE1122172178680C
:1013C800FFF79CFE00221C217868FFF797FE002299
:1013D8001D217868FFF792FE00BF2037BD4680BD0B
:1013E800383C0008403C000880B483B000AF0023BC
:1013F8007B60104B5B6C0F4A43F4804353640D4B86
:101408005B6C03F480437B607B6800233B60094B83
:101418001B6C084A43F080531364064B1B6C03F0A3
:1014280080533B603B6800BF0C37BD465DF8047BCA
:10143800704700BF0038024080B58AB000AF7860BE
:1014480007F1140300221A605A609A60DA601A6180
:101458007B681B681D4A934234D100233B611C4BB7
:101468001B6C1B4A43F480431364194B1B6C03F435
:1014780080433B613B690023FB60154B1B6B144A9F
:1014880043F002031363124B1B6B03F00203FB6070
:10149800FB684FF444437B610223BB610023FB617B
:1014A80003233B6205237B6207F1140319460948AD
:1014B80000F084FA00220021242000F026FA2420DB
:1014C80000F03FFA00BF2837BD4680BD0038004015
:1014D800003802400004024080B588B000AF786050
:1014E80007F10C0300221A605A609A60DA601A61E8
:1014F8007B681B68B3F1804F1DD10023BB60104B84
:101508001B6B0F4A43F0010313630D4B1B6B03F076
:101518000103BB60BB682023FB6002233B610023FF
:101528007B610023BB610123FB6107F10C031946B2
:10153800044800F043FA00BF2037BD4680BD00BF15
:10154800003802400000024080B400AFFEE780B4DB
:1015580000AFFEE780B400AFFEE780B400AFFEE75F
:1015680080B400AFFEE780B400AF00BFBD465DF8B1
:10157800047B704780B400AF00BFBD465DF8047BB4
:10158800704780B400AF00BFBD465DF8047B70476C
:1015980080B500AF00F09AF800BF80BD80B500AFFD
:1015A800024801F045FC00BF80BD00BF4800002094
:1015B80080B400AF064BD3F88830054A43F4700373
:1015C800C2F8883000BFBD465DF8047B704700BF95
:1015D80000ED00E0DFF834D00D480E490E4A002334
:1015E80002E0D458C4500433C4188C42F9D30B4ACF
:1015F8000B4C002301E013600432A242FBD3FFF737
:10160800D7FF02F0DDFAFEF765FF70470000022001
:10161800000000202C000020683C00082C0000205E
:1016280088010020FEE7000080B500AF0E4B1B6864
:101638000D4A43F4007313600B4B1B680A4A43F4CA
:1016480080631360084B1B68074A43F48073136078
:10165800032000F04FF90F2000F008F8FFF7C4FE50
:101668000023184680BD00BF003C024080B582B010
:1016780000AF7860124B1A68124B1B7819464FF46A
:101688007A73B3FBF1F3B2FBF3F3184600F067F992
:101698000346002B01D001230EE07B680F2B0AD8EC
:1016A800002279684FF0FF3000F02FF9064A7B6876
:1016B8001360002300E0012318460837BD4680BDAB
:1016C80020000020280000202400002080B400AF63
:1016D800064B1B781A46064B1B681344044A1360D2
:1016E80000BFBD465DF8047B704700BF280000209E
:1016F8008401002080B400AF034B1B681846BD4628
:101708005DF8047B704700BF8401002080B584B079
:1017180000AF7860FFF7EEFFB8607B68FB60FB689E
:10172800B3F1FF3F05D00A4B1B781A46FB681344F8
:10173800FB6000BFFFF7DEFF0246BB68D31AFA68FA
:101748009A42F7D800BF00BF1037BD4680BD00BF22
:101758002800002080B485B000AF78607B6803F073
:101768000703FB600C4BDB68BB60BA684FF6FF03EE
:101778001340BB60FB681A02BB68134343F0BF63A6
:1017880043F40033BB60044ABB68D36000BF14371E
:10179800BD465DF8047B704700ED00E080B400AF03
:1017A800044BDB681B0A03F007031846BD465DF8C7
:1017B800047B704700ED00E080B483B000AF0346BF
:1017C800FB7197F90730002B0BDBFB7903F01F0245
:1017D800074997F907305B09012000FA02F241F83E
:1017E800232000BF0C37BD465DF8047B704700BF5F
:1017F80000E100E080B483B000AF03463960FB71BC
:1018080097F90730002B0ADB3B68DAB20C4997F9E5
:1018180007301201D2B20B4483F800230AE03B6878
:10182800DAB20849FB7903F00F03043B1201D2B284
:101838000B441A7600BF0C37BD465DF8047B704731
:1018480000E100E000ED00E080B489B000AFF8608E
:10185800B9607A60FB6803F00703FB61FB69C3F1B9
:101868000703042B28BF0423BB61FB690433062B41
:1018780002D9FB69033B00E000237B614FF0FF3294
:10188800BB6902FA03F3DA43BB681A407B699A40E2
:101898004FF0FF317B6901FA03F3D9437B680B40B2
:1018A800134318462437BD465DF8047B7047000093
:1018B80080B582B000AF78607B68013BB3F1807F70
:1018C80001D301230FE00A4A7B68013B53600F21D3
:1018D8004FF0FF30FFF78EFF054B00229A60044B54
:1018E80007221A60002318460837BD4680BD00BF8E
:1018F80010E000E080B582B000AF78607868FFF74C
:1019080029FF00BF0837BD4680BD80B586B000AF4F
:101918000346B9607A60FB7300237B61FFF73EFFE3
:1019280078617A68B9687869FFF78EFF024697F997
:101938000F3011461846FFF75DFF00BF1837BD4648
:1019480080BD80B582B000AF0346FB7197F90730C0
:101958001846FFF731FF00BF0837BD4680BD80B588
:1019680082B000AF78607868FFF7A2FF0346184698
:101978000837BD4680BD80B483B000AF78607B680F
:1019880093F83530DBB2022B04D07B6880225A658D
:1019980001230CE07B68052283F835207B681B68EF
:1019A8001A687B681B6822F001021A600023184637
:1019B8000C37BD465DF8047B7047000080B489B0E1
:1019C80000AF7860396000237B6100233B6100230E
:1019D800BB610023FB6159E10122FB6902FA03F3B1
:1019E8007B613B681B687A6913403B613A697B6994
:1019F8009A4240F048813B685B6803F00303012B7F
:101A080005D03B685B6803F00303022B30D17B6889
:101A18009B68BB61FB695B00032202FA03F3DB43AB
:101A2800BA691340BB613B68DA68FB695B0002FA7C
:101A380003F3BA691343BB617B68BA699A607B6830
:101A48005B68BB610122FB6902FA03F3DB43BA69F5
:101A58001340BB613B685B681B0903F00102FB692B
:101A680002FA03F3BA691343BB617B68BA695A6027
:101A78003B685B6803F00303032B17D07B68DB68C4
:101A8800BB61FB695B00032202FA03F3DB43BA691B
:101A98001340BB613B689A68FB695B0002FA03F379
:101AA800BA691343BB617B68BA69DA603B685B68F3
:101AB80003F00303022B23D1FB69DA087B680832A1
:101AC80053F82230BB61FB6903F007039B000F2228
:101AD80002FA03F3DB43BA691340BB613B681A6936
:101AE800FB6903F007039B0002FA03F3BA69134387
:101AF800BB61FB69DA087B680832B96943F82210D0
:101B08007B681B68BB61FB695B00032202FA03F375
:101B1800DB43BA691340BB613B685B6803F00302AF
:101B2800FB695B0002FA03F3BA691343BB617B6884
:101B3800BA691A603B685B6803F44033002B00F015
:101B4800A2800023FB60574B5B6C564A43F48043EA
:101B58005364544B5B6C03F48043FB60FB68524A4C
:101B6800FB699B08023352F82330BB61FB6903F021
:101B780003039B000F2202FA03F3DB43BA69134005
:101B8800BB617B68494A934219D07B68484A9342B3
:101B980013D07B68474A93420DD07B68464A9342EC
:101BA80007D07B68454A934201D1042308E0072304
:101BB80006E0032304E0022302E0012300E00023FF
:101BC800FA6902F0030292009340BA691343BB61B9
:101BD8003549FB699B080233BA6941F82320384B21
:101BE8009B68BB613B69DB43BA691340BB613B68D7
:101BF8005B6803F48013002B03D0BA693B69134375
:101C0800BB612F4ABB6993602D4BDB68BB613B69A5
:101C1800DB43BA691340BB613B685B6803F400139C
:101C2800002B03D0BA693B691343BB61244ABB69E3
:101C3800D360234B5B68BB613B69DB43BA691340E4
:101C4800BB613B685B6803F40033002B03D0BA69BF
:101C58003B691343BB611A4ABB695360184B1B6845
:101C6800BB613B69DB43BA691340BB613B685B6896
:101C780003F48033002B03D0BA693B691343BB617B
:101C88000F4ABB691360FB690133FB61FB690F2BCA
:101C98007FF6A2AE00BF00BF2437BD465DF8047BC7
:101CA800704700BF00380240003801400000024081
:101CB8000004024000080240000C024000100240EC
:101CC800003C014080B483B000AF78600B467B8055
:101CD80013467B707B78002B03D07A887B689A61E7
:101CE80003E07B881A047B689A6100BF0C37BD4605
:101CF8005DF8047B7047000080B586B000AF78605F
:101D08007B68002B01D1012367E27B681B6803F025
:101D18000103002B75D0884B9B6803F00C03042B40
:101D28000CD0854B9B6803F00C03082B12D1824B17
:101D38005B6803F48003B3F5800F0BD17E4B1B68FF
:101D480003F40033002B5BD07B685B68002B57D112
:101D5800012342E27B685B68B3F5803F06D1764B8E
:101D68001B68754A43F4803313601DE07B685B6829
:101D7800B3F5A02F0CD1704B1B686F4A43F4802336
:101D880013606D4B1B686C4A43F4803313600BE09F
:101D9800694B1B68684A23F480331360664B1B68E1
:101DA800654A23F4802313607B685B68002B13D09B
:101DB800FFF7A0FC386108E0FFF79CFC02463B698E
:101DC800D31A642B01D9032307E25B4B1B6803F486
:101DD8000033002BF0D014E0FFF78CFC386108E0EA
:101DE800FFF788FC02463B69D31A642B01D9032309
:101DF800F3E1514B1B6803F40033002BF0D100E0F2
:101E080000BF7B681B6803F00203002B63D04A4BBA
:101E18009B6803F00C03002B0BD0474B9B6803F027
:101E28000C03082B1CD1444B5B6803F48003002B84
:101E380016D1414B1B6803F00203002B05D07B68C9
:101E4800DB68012B01D00123C7E13B4B1B6823F062
:101E5800F8027B681B69DB00374913430B603AE0E3
:101E68007B68DB68002B20D0344B01221A60FFF717
:101E780041FC386108E0FFF73DFC02463B69D31A94
:101E8800022B01D90323A8E12B4B1B6803F00203A3
:101E9800002BF0D0284B1B6823F0F8027B681B69E5
:101EA800DB00254913430B6015E0244B00221A6020
:101EB800FFF720FC386108E0FFF71CFC02463B698D
:101EC800D31A022B01D9032387E11B4B1B6803F0AC
:101ED8000203002BF0D17B681B6803F00803002B7A
:101EE80036D07B685B69002B16D0154B01221A602F
:101EF800FFF700FC386108E0FFF7FCFB02463B698E
:101F0800D31A022B01D9032367E10B4B5B6F03F054
:101F18000203002BF0D01BE0094B00221A60FFF7E8
:101F2800E9FB38610EE0FFF7E5FB02463B69D31A8F
:101F3800022B07D9032350E1003802400000474232
:101F4800800E4742884B5B6F03F00203002BEAD1F7
:101F58007B681B6803F00403002B00F097800023C4
:101F6800FB75814B1B6C03F08053002B0FD10023B2
:101F7800BB607D4B1B6C7C4A43F0805313647A4BE7
:101F88001B6C03F08053BB60BB680123FB75774B68
:101F98001B6803F48073002B18D1744B1B68734AB9
:101FA80043F480731360FFF7A5FB386108E0FFF77F
:101FB800A1FB02463B69D31A022B01D903230CE18A
:101FC8006A4B1B6803F48073002BF0D07B689B6816
:101FD800012B06D1644B1B6F634A43F0010313675F
:101FE8001CE07B689B68052B0CD15F4B1B6F5E4A1E
:101FF80043F0040313675C4B1B6F5B4A43F0010318
:1020080013670BE0584B1B6F574A23F00103136704
:10201800554B1B6F544A23F0040313677B689B6876
:10202800002B15D0FFF766FB38610AE0FFF762FB6B
:1020380002463B69D31A41F28832934201D90323FD
:10204800CBE0494B1B6F03F00203002BEED014E0EA
:10205800FFF750FB38610AE0FFF74CFB02463B698B
:10206800D31A41F28832934201D90323B5E03E4B9B
:102078001B6F03F00203002BEED1FB7D012B05D172
:10208800394B1B6C384A23F0805313647B689B6977
:10209800002B00F0A180344B9B6803F00C03082B45
:1020A8005CD07B689B69022B41D1314B00221A60BE
:1020B800FFF720FB386108E0FFF71CFB02463B698D
:1020C800D31A022B01D9032387E0274B1B6803F09F
:1020D8000073002BF0D17B68DA697B681B6A1A43AE
:1020E8007B685B6A9B011A437B689B6A5B08013BC0
:1020F8001B041A437B68DB6A1B061B4913434B60AE
:102108001B4B01221A60FFF7F5FA386108E0FFF768
:10211800F1FA02463B69D31A022B01D903235CE08A
:10212800114B1B6803F00073002BF0D054E0104BE8
:1021380000221A60FFF7DEFA386108E0FFF7DAFAE2
:1021480002463B69D31A022B01D9032345E0064B0B
:102158001B6803F00073002BF0D13DE07B689B699E
:10216800012B07D1012338E00038024000700040FD
:10217800600047421B4B5B68FB607B689B69012BD7
:1021880028D0FB6803F480027B68DB699A4221D17E
:10219800FB6803F03F027B681B6A9A421AD1FA680F
:1021A80047F6C07313407A68526A9201934211D17C
:1021B800FB6803F440327B689B6A5B08013B1B04A5
:1021C8009A4207D1FB6803F070627B68DB6A1B06E2
:1021D8009A4201D0012300E0002318461837BD4673
:1021E80080BD00BF0038024080B584B000AF786081
:1021F80039607B68002B01D10123CCE0684B1B6858
:1022080003F007033A689A420CD9654B3A68D2B290
:102218001A70634B1B6803F007033A689A4201D0AF
:102228000123B8E07B681B6803F00203002B20D071
:102238007B681B6803F00403002B05D0594B9B688F
:10224800584A43F4E05393607B681B6803F0080323
:10225800002B05D0534B9B68524A43F4604393606C
:10226800504B9B6823F0F0027B689B684D491343F1
:102278008B607B681B6803F00103002B44D07B68EC
:102288005B68012B07D1474B1B6803F40033002B15
:1022980019D101237FE07B685B68022B03D07B6840
:1022A8005B68032B07D13F4B1B6803F00073002BBF
:1022B80009D101236FE03B4B1B6803F00203002B9D
:1022C80001D1012367E0374B9B6823F003027B6849
:1022D8005B68344913438B60FFF70CFAF8600AE037
:1022E800FFF708FA0246FB68D31A41F28832934294
:1022F80001D903234FE02B4B9B6803F00C027B684A
:102308005B689B009A42EBD1254B1B6803F00703DF
:102318003A689A420CD2224B3A68D2B21A70204BD1
:102328001B6803F007033A689A4201D0012332E0A0
:102338007B681B6803F00403002B08D0194B9B68CB
:1023480023F4E0527B68DB68164913438B607B6893
:102358001B6803F00803002B09D0124B9B6823F479
:1023680060427B681B69DB000E4913438B6000F0F9
:1023780021F802460B4B9B681B0903F00F030A491F
:10238800CB5C22FA03F3094A1360094B1B68184611
:10239800FFF76CF9002318461037BD4680BD00BF13
:1023A800003C024000380240483C00082000002061
:1023B800240000202DE9B04F90B000AF00237B63CC
:1023C8000023FB6300233B630023BB63594B9B68DB
:1023D80003F00C03082B0DD0082B00F2A180002B72
:1023E80002D0042B03D09BE0534BBB639BE0534BC1
:1023F800BB6398E04F4B5B6803F03F037B634D4B37
:102408005B6803F48003002B28D04A4B5B689B0968
:1024180000223B627A623B6AC3F308000021474B03
:1024280003FB01F2002300FB03F31344434AA0FB20
:102438000212FA620A46BA62FA6A1344FB627B6BBA
:102448000022BB61FA61D7E90623D7E90A01FDF743
:10245800BFFE02460B461346FB6353E0354B5B68F1
:102468009B0900223B617A613B69C3F3080A4FF07C
:10247800000B52465B464FF000004FF00001590137
:1024880041EAD261500102460B46B2EB0A0863EBFF
:102498000B094FF000024FF000034FEA891343EA9B
:1024A80098634FEA8812B2EB080463EB09054FF012
:1024B80000024FF00003EB0043EA5473E2001446B5
:1024C8001D4614EB0A033B6045EB0B037B604FF0A2
:1024D80000024FF00003D7E9004529468B02214648
:1024E80043EA915321468A02104619467B6B002223
:1024F800BB60FA60D7E90223FDF76AFE02460B4685
:102508001346FB630B4B5B681B0C03F0030301339F
:102518005B003B63FA6B3B6BB2FBF3F3BB6302E01C
:10252800054BBB6300BFBB6B18464037BD46BDE8D3
:10253800B08F00BF003802400024F40040787D01CD
:1025480080B582B000AF78607B68002B01D1012391
:102558007BE07B685B6A002B08D17B685B68B3F51E
:10256800827F09D07B680022DA6105E07B6800225F
:102578001A617B6800225A617B6800229A627B6834
:1025880093F85130DBB2002B06D17B68002283F828
:1025980050207868FEF750FF7B68022283F85120AC
:1025A8007B681B681A687B681B6822F040021A6007
:1025B8007B685B6803F482727B689B6803F404435E
:1025C8001A437B68DB6803F400631A437B681B6962
:1025D80003F002031A437B685B6903F001031A43A3
:1025E8007B689B6903F400731A437B68DB6903F01B
:1025F80038031A437B681B6A03F0800342EA03012D
:102608007B689B6A03F400527B681B680A431A6064
:102618007B689B691B0C03F004017B685B6A03F011
:1026280010027B681B680A435A607B681B68DA697A
:102638007B681B6822F40062DA617B6800225A65B5
:102648007B68012283F85120002318460837BD46CD
:1026580080BD80B588B000AFF860B9603B601346B4
:10266800FB800023FB77FB6893F85030012B01D1E6
:10267800022326E1FB68012283F85020FFF73AF88D
:10268800B861FB88FB82FB6893F85130DBB2012B01
:1026980002D00223FB770BE1BB68002B02D0FB883A
:1026A800002B02D10123FB7702E1FB68032283F8A8
:1026B8005120FB6800225A65FB68BA681A63FB68F8
:1026C800FA889A86FB68FA88DA86FB6800229A6399
:1026D800FB6800229A87FB680022DA87FB680022E1
:1026E8005A64FB6800221A64FB689B68B3F5004FC4
:1026F8000FD1FB681B681A68FB681B6822F0400250
:102708001A60FB681B681A68FB681B6842F4804201
:102718001A60FB681B681B6803F04003402B07D056
:10272800FB681B681A68FB681B6842F040021A6065
:10273800FB68DB68B3F5006F4BD1FB685B68002B67
:1027480002D0FB8A012B3ED1FB681B6B1A88FB6801
:102758001B68DA60FB681B6B9A1CFB681A63FB68D2
:10276800DB8E9BB2013B9AB2FB68DA862BE0FB68F2
:102778001B689B6803F00203022B12D1FB681B6BDA
:102788001A88FB681B68DA60FB681B6B9A1CFB687D
:102798001A63FB68DB8E9BB2013B9AB2FB68DA8650
:1027A80011E0FEF7A7FF0246BB69D31A3A689A42BE
:1027B80003D83B68B3F1FF3F02D13B68002B02D13D
:1027C8000323FB7774E0FB68DB8E9BB2002BCED132
:1027D8004CE0FB685B68002B02D0FB8A012B40D1E0
:1027E800FB681A6BFB681B680C3312781A70FB685D
:1027F8001B6B5A1CFB681A63FB68DB8E9BB2013BA0
:102808009AB2FB68DA862CE0FB681B689B6803F0C9
:102818000203022B13D1FB681A6BFB681B680C338D
:1028280012781A70FB681B6B5A1CFB681A63FB68EA
:10283800DB8E9BB2013B9AB2FB68DA8611E0FEF7A9
:1028480059FF0246BB69D31A3A689A4203D83B68D3
:10285800B3F1FF3F02D13B68002B02D10323FB7782
:1028680026E0FB68DB8E9BB2002BCDD1BA693968B4
:10287800F86800F0F7FC0346002B02D0FB68202222
:102888005A65FB689B68002B0AD100233B61FB68F3
:102898001B68DB683B61FB681B689B683B613B69A5
:1028A800FB685B6D002B02D00123FB7700E000BFC3
:1028B800FB68012283F85120FB68002283F850202E
:1028C800FB7F18462037BD4680BD80B588B002AF73
:1028D800F860B9603B601346FB800023FB75FB681A
:1028E8005B68B3F5827F12D1FB689B68002B0ED121
:1028F800FB68042283F85120FA883B68009313464A
:10290800BA68B968F86800F0F1F80346EAE0FB68CD
:1029180093F85030012B01D10223E3E0FB68012238
:1029280083F85020FEF7E6FE3861FB6893F85130D3
:10293800DBB2012B02D00223FB75CAE0BB68002B77
:1029480002D0FB88002B02D10123FB75C1E0FB6894
:10295800042283F85120FB6800225A65FB68BA6894
:102968009A63FB68FA889A87FB68FA88DA87FB68B3
:1029780000221A63FB6800229A86FB680022DA8626
:10298800FB6800221A64FB6800225A64FB689B6893
:10299800B3F5004F0FD1FB681B681A68FB681B680A
:1029A80022F040021A60FB681B681A68FB681B6803
:1029B80022F480421A60FB681B681B6803F040031E
:1029C800402B07D0FB681B681A68FB681B6842F03D
:1029D80040021A60FB68DB68002B62D12EE0FB68BE
:1029E8001B689B6803F00103012B15D1FB681B686A
:1029F80003F10C02FB689B6B1278D2B21A70FB6869
:102A08009B6B5A1CFB689A63FB68DB8F9BB2013B8C
:102A18009AB2FB68DA8711E0FEF76CFE02463B6962
:102A2800D31A3A689A4203D83B68B3F1FF3F02D100
:102A38003B68002B02D10323FB754AE0FB68DB8F60
:102A48009BB2002BCBD131E0FB681B689B6803F07D
:102A58000103012B13D1FB681B68DA68FB689B6BC9
:102A680092B21A80FB689B6B9A1CFB689A63FB689E
:102A7800DB8F9BB2013B9AB2FB68DA8711E0FEF765
:102A880039FE02463B69D31A3A689A4203D83B6832
:102A9800B3F1FF3F02D13B68002B02D10323FB7542
:102AA80017E0FB68DB8F9BB2002BCDD13A69396800
:102AB800F86800F071FB0346002B02D0FB68202267
:102AC8005A65FB685B6D002B02D00123FB7500E0A3
:102AD80000BFFB68012283F85120FB68002283F8BD
:102AE8005020FB7D18461837BD4680BD80B58CB098
:102AF80000AFF860B9607A607B800123FB62002335
:102B080087F82B30FB6893F85030012B01D1022352
:102B18008AE1FB68012283F85020FEF7EBFD78621A
:102B2800FB6893F8513087F82330FB685B68FB61DA
:102B38007B887B8397F82330012B0FD0FB69B3F593
:102B4800827F07D1FB689B68002B03D197F823305D
:102B5800042B03D0022387F82B305BE1BB68002BE2
:102B680005D07B68002B02D07B88002B03D1012382
:102B780087F82B304EE1FB6893F85130DBB2042B19
:102B880003D0FB68052283F85120FB6800225A65B0
:102B9800FB687A689A63FB687A88DA87FB687A88C0
:102BA8009A87FB68BA681A63FB687A88DA86FB68D2
:102BB8007A889A86FB6800221A64FB6800225A64A5
:102BC800FB681B681B6803F04003402B07D0FB68B9
:102BD8001B681A68FB681B6842F040021A60FB68B1
:102BE800DB68B3F5006F78D1FB685B68002B02D017
:102BF8007B8B012B66D1FB681B6B1A88FB681B68F3
:102C0800DA60FB681B6B9A1CFB681A63FB68DB8E37
:102C18009BB2013B9AB2FB68DA8653E0FB681B68FB
:102C28009B6803F00203022B1BD1FB68DB8E9BB26F
:102C3800002B16D0FB6A012B13D1FB681B6B1A887B
:102C4800FB681B68DA60FB681B6B9A1CFB681A63DD
:102C5800FB68DB8E9BB2013B9AB2FB68DA860023E5
:102C6800FB62FB681B689B6803F00103012B19D109
:102C7800FB68DB8F9BB2002B14D0FB681B68DA68FB
:102C8800FB689B6B92B21A80FB689B6B9A1CFB6873
:102C98009A63FB68DB8F9BB2013B9AB2FB68DA87C9
:102CA8000123FB62FEF726FD02467B6AD31ABA6B44
:102CB8009A4207D8BB6BB3F1FF3F03D0032387F8D1
:102CC8002B30A7E0FB68DB8E9BB2002BA6D1FB68FC
:102CD800DB8F9BB2002BA1D17CE0FB685B68002BEB
:102CE80002D07B8B012B6BD1FB681A6BFB681B68CE
:102CF8000C3312781A70FB681B6B5A1CFB681A633A
:102D0800FB68DB8E9BB2013B9AB2FB68DA8657E020
:102D1800FB681B689B6803F00203022B1CD1FB684D
:102D2800DB8E9BB2002B17D0FB6A012B14D1FB68FA
:102D38001A6BFB681B680C3312781A70FB681B6BE4
:102D48005A1CFB681A63FB68DB8E9BB2013B9AB284
:102D5800FB68DA860023FB62FB681B689B6803F04C
:102D68000103012B19D1FB68DB8F9BB2002B14D018
:102D7800FB681B68DA68FB689B6BD2B21A70FB6849
:102D88009B6B5A1CFB689A63FB68DB8F9BB2013B09
:102D98009AB2FB68DA870123FB62FEF7ABFC0246B6
:102DA8007B6AD31ABA6B9A4203D8BB6BB3F1FF3F65
:102DB80002D1BB6B002B03D1032387F82B3029E00A
:102DC800FB68DB8E9BB2002BA2D1FB68DB8F9BB22A
:102DD800002B9DD17A6AB96BF86800F043FA034674
:102DE800002B06D0012387F82B30FB6820225A6578
:102DF80010E0FB689B68002B0BD100237B61FB680C
:102E08001B68DB687B61FB681B689B687B617B696F
:102E180000E000BFFB68012283F85120FB68002214
:102E280083F8502097F82B3018463037BD4680BDC0
:102E380080B588B000AF78607B681B685B68FB6111
:102E48007B681B689B68BB61BB699B0903F0010336
:102E5800002B0FD1BB6903F00103002B0AD0FB69DB
:102E68009B0903F00103002B04D07B681B6C786876
:102E78009847D7E0BB695B0803F00103002B0AD031
:102E8800FB69DB0903F00103002B04D07B685B6C52
:102E980078689847C6E0BB695B0903F00103002B1B
:102EA8000CD1BB699B0903F00103002B06D1BB6958
:102EB8001B0A03F00103002B00F0B480FB695B09D7
:102EC80003F00103002B00F0AD80BB699B0903F000
:102ED8000103002B23D07B6893F85130DBB2032B1E
:102EE80011D07B685B6D43F004027B685A65002350
:102EF8007B617B681B68DB687B617B681B689B6800
:102F08007B617B690BE000233B617B681B68DB68A6
:102F18003B617B681B689B683B613B6982E0BB69DE
:102F28005B0903F00103002B14D07B685B6D43F051
:102F380001027B685A650023FB607B681B689B68FD
:102F4800FB607B681B681A687B681B6822F040027C
:102F58001A60FB68BB691B0A03F00103002B0CD045
:102F68007B685B6D43F008027B685A650023BB6091
:102F78007B681B689B68BB60BB687B685B6D002BCC
:102F88004FD07B681B685A687B681B6822F0E00298
:102F98005A607B68012283F85120FB6903F0020321
:102FA800002B04D1FB6903F00103002B34D07B68AC
:102FB8001B685A687B681B6822F003025A607B68AA
:102FC800DB6C002B11D07B68DB6C184A1A657B68B8
:102FD800DB6C1846FEF7CFFC0346002B05D07B6858
:102FE8005B6D43F040027B685A657B689B6C002BE5
:102FF80016D07B689B6C0D4A1A657B689B6C1846DB
:10300800FEF7B9FC0346002B0AD07B685B6D43F0E2
:1030180040027B685A6503E0786800F009F800E030
:1030280000BF00BF2037BD4680BD00BF6930000823
:1030380080B483B000AF786000BF0C37BD465DF840
:10304800047B704780B483B000AF78607B6893F8E6
:103058005130DBB218460C37BD465DF8047B70472B
:1030680080B584B000AF78607B689B6BFB60FB68C1
:103078000022DA87FB680022DA86F868FFF7D8FFB3
:1030880000BF1037BD4680BD80B588B000AFF8607E
:10309800B9603B601346FB71FEF72CFB0246BB6A26
:1030A8009B1A3A681344FB61FEF724FBB861394B5D
:1030B8001B685B011B0DFA6902FB03F37B6154E09B
:1030C8003B68B3F1FF3F50D0FEF714FB0246BB69E3
:1030D800D31AFA699A4202D9FB69002B3DD1FB68E1
:1030E8001B685A68FB681B6822F0E0025A60FB689C
:1030F8005B68B3F5827F11D1FB689B68B3F5004F1D
:1031080004D0FB689B68B3F5806F07D1FB681B6828
:103118001A68FB681B6822F040021A60FB689B6A09
:10312800B3F5005F0FD1FB681B681A68FB681B6862
:1031380022F400521A60FB681B681A68FB681B6857
:1031480042F400521A60FB68012283F85120FB68A0
:10315800002283F85020032317E07B69002B01D15C
:103168000023FB617B69013B7B61FB681B689A68F4
:10317800BB681340BA689A420CBF01230023DBB234
:103188001A46FB799A429BD1002318462037BD4640
:1031980080BD00BF2000002080B586B002AFF86077
:1031A800B9607A60FB685B68B3F5827F11D1FB6810
:1031B8009B68B3F5004F04D0FB689B68B3F5806F3C
:1031C80007D1FB681B681A68FB681B6822F040027D
:1031D8001A60FB685B68B3F5827F2AD1FB689B683D
:1031E800B3F5806F12D07B680093BB680022802102
:1031F800F868FFF749FF0346002B2DD0FB685B6D8D
:1032080043F02002FB685A65032326E07B6800939D
:10321800BB6800220121F868FFF736FF0346002B40
:103228001AD0FB685B6D43F02002FB685A650323E4
:1032380013E07B680093BB6800220121F868FFF760
:1032480023FF0346002B07D0FB685B6D43F0200289
:10325800FB685A65032300E0002318461037BD4673
:1032680080BD000080B588B002AFF860B9607A60B0
:103278001B4B1B681B4AA2FB03235B0D4FF47A729E
:1032880002FB03F37B61FB685B68B3F5827F12D1B5
:103298007B680093BB6800228021F868FFF7F4FE82
:1032A8000346002B16D0FB685B6D43F02002FB68D9
:1032B8005A6503230FE07B69002B0AD07B69013B29
:1032C8007B61FB681B689B6803F08003802BF2D04E
:1032D80000E000BF002318461837BD4680BD00BF78
:1032E80020000020819F5E1680B582B000AF786014
:1032F8007B68002B01D1012341E07B6893F83D30C6
:10330800DBB2002B06D17B68002283F83C2078686A
:1033180000F039F87B68022283F83D207B681A6840
:103328007B6804331946104600F0AAF97B6801222D
:1033380083F846207B68012283F83E207B680122BF
:1033480083F83F207B68012283F840207B680122B4
:1033580083F841207B68012283F842207B680122A0
:1033680083F843207B68012283F844207B6801228C
:1033780083F845207B68012283F83D200023184606
:103388000837BD4680BD80B483B000AF786000BF09
:103398000C37BD465DF8047B7047000080B584B0EB
:1033A80000AF786039603B68002B09D17B6893F8DF
:1033B8003E30DBB2012B14BF01230023DBB222E035
:1033C8003B68042B09D17B6893F83F30DBB2012BB3
:1033D80014BF01230023DBB215E03B68082B09D199
:1033E8007B6893F84030DBB2012B14BF0123002324
:1033F800DBB208E07B6893F84130DBB2012B14BFE5
:1034080001230023DBB2002B01D0012368E03B68D5
:10341800002B04D17B68022283F83E2013E03B682E
:10342800042B04D17B68022283F83F200BE03B6821
:10343800082B04D17B68022283F8402003E07B68D4
:10344800022283F841207B681B68012239681846EC
:1034580000F022FB7B681B68234A934207D17B68F4
:103468001B685A6C7B681B6842F400425A647B688C
:103478001B681D4A934218D07B681B68B3F1804FC4
:1034880013D07B681B68194A93420ED07B681B686F
:10349800174A934209D07B681B68164A934204D0A6
:1034A8007B681B68144A934211D17B681B689B6830
:1034B80003F00703FB60FB68062B10D07B681B68D2
:1034C8001A687B681B6842F001021A6007E07B6893
:1034D8001B681A687B681B6842F001021A600023A7
:1034E80018461037BD4680BD00000140000400406A
:1034F80000080040000C00400040014080B586B044
:1035080000AFF860B9607A600023FB75FB6893F838
:103518003C30012B01D10223AEE0FB68012283F885
:103528003C207B680C2B00F29F8001A252F823F00C
:103538006D350008713600087136000871360008CC
:10354800AD3500087136000871360008713600087C
:10355800EF3500087136000871360008713600082A
:103568002F360008FB681B68B968184600F008F990
:10357800FB681B689A69FB681B6842F008029A613D
:10358800FB681B689A69FB681B6822F004029A6151
:10359800FB681B689969BB681A69FB681B680A4362
:1035A8009A6164E0FB681B68B968184600F04EF938
:1035B800FB681B689A69FB681B6842F400629A61A1
:1035C800FB681B689A69FB681B6822F480629A6131
:1035D800FB681B689969BB681B691A02FB681B6852
:1035E8000A439A6143E0FB681B68B968184600F013
:1035F80099F9FB681B68DA69FB681B6842F00802E6
:10360800DA61FB681B68DA69FB681B6822F0040250
:10361800DA61FB681B68D969BB681A69FB681B68B3
:103628000A43DA6123E0FB681B68B968184600F0B2
:10363800E3F9FB681B68DA69FB681B6842F40062FF
:10364800DA61FB681B68DA69FB681B6822F4806230
:10365800DA61FB681B68D969BB681B691A02FB68D9
:103668001B680A43DA6102E00123FB7500BFFB68AF
:10367800002283F83C20FB7D18461837BD4680BDE4
:1036880080B485B000AF786039607B681B68FB60E8
:103698007B68344A93420FD07B68B3F1804F0BD0DC
:1036A8007B68314A934207D07B68304A934203D003
:1036B8007B682F4A934208D1FB6823F07003FB60B4
:1036C8003B685B68FA681343FB607B68254A934252
:1036D8001BD07B68B3F1804F17D07B68224A934296
:1036E80013D07B68214A93420FD07B68204A9342CB
:1036F8000BD07B681F4A934207D07B681E4A9342CF
:1037080003D07B681D4A934208D1FB6823F44073B9
:10371800FB603B68DB68FA681343FB60FB6823F0D7
:1037280080023B685B691343FB607B68FA681A6038
:103738003B689A687B68DA623B681A687B689A62B9
:103748007B68084A934203D13B681A697B681A630D
:103758007B6801225A6100BF1437BD465DF8047BBF
:10376800704700BF0000014000040040000800400E
:10377800000C004000400140004401400048014066
:1037880080B487B000AF786039607B681B6A23F02B
:1037980001027B681A627B681B6A7B617B685B68D5
:1037A8003B617B689B69FB60FB6823F07003FB60EF
:1037B800FB6823F00303FB603B681B68FA6813434C
:1037C800FB607B6923F002037B613B689B687A6935
:1037D80013437B617B681C4A93420CD17B6923F0BD
:1037E80008037B613B68DB687A6913437B617B690B
:1037F80023F004037B617B68134A934211D13B6930
:1038080023F480733B613B6923F400733B613B689D
:103818005B693A6913433B613B689B693A691343A7
:103828003B617B683A695A607B68FA689A613B68D1
:103838005A687B685A637B687A691A6200BF1C37CA
:10384800BD465DF8047B70470000014080B487B036
:1038580000AF786039607B681B6A23F010027B68D0
:103868001A627B681B6A7B617B685B683B617B686B
:103878009B69FB60FB6823F4E043FB60FB6823F46F
:103888004073FB603B681B681B02FA681343FB60CC
:103898007B6923F020037B613B689B681B017A6985
:1038A80013437B617B681E4A93420DD17B6923F0E9
:1038B80080037B613B68DB681B017A6913437B618A
:1038C8007B6923F040037B617B68154A934213D1DF
:1038D8003B6923F480633B613B6923F400633B61EC
:1038E8003B685B699B003A6913433B613B689B6992
:1038F8009B003A6913433B617B683A695A607B686D
:10390800FA689A613B685A687B689A637B687A6947
:103918001A6200BF1C37BD465DF8047B704700BFC4
:103928000000014080B487B000AF786039607B68E0
:103938001B6A23F480727B681A627B681B6A7B614E
:103948007B685B683B617B68DB69FB60FB6823F035
:103958007003FB60FB6823F00303FB603B681B6894
:10396800FA681343FB607B6923F400737B613B684F
:103978009B681B027A6913437B617B681D4A9342EB
:103988000DD17B6923F400637B613B68DB681B0214
:103998007A6913437B617B6923F480637B617B686D
:1039A800144A934213D13B6923F480533B613B692A
:1039B80023F400533B613B685B691B013A6913437D
:1039C8003B613B689B691B013A6913433B617B6818
:1039D8003A695A607B68FA68DA613B685A687B68BA
:1039E800DA637B687A691A6200BF1C37BD465DF8E6
:1039F800047B70470000014080B487B000AF786056
:103A080039607B681B6A23F480527B681A627B6882
:103A18001B6A3B617B685B687B617B68DB69FB6079
:103A2800FB6823F4E043FB60FB6823F44073FB600E
:103A38003B681B681B02FA681343FB603B6923F46D
:103A480000533B613B689B681B033A6913433B6126
:103A58007B68104A934209D17B6923F480437B61D8
:103A68003B685B699B017A6913437B617B687A6970
:103A78005A607B68FA68DA613B685A687B681A643E
:103A88007B683A691A6200BF1C37BD465DF8047B43
:103A9800704700BF0000014080B487B000AFF860F5
:103AA800B9607A60BB6803F01F03012202FA03F3CE
:103AB8007B61FB681A6A7B69DB431A40FB681A6200
:103AC800FB681A6ABB6803F01F03796801FA03F3FD
:103AD8001A43FB681A6200BF1C37BD465DF8047BB9
:103AE8007047000080B485B000AF786039607B68AB
:103AF80093F83C30012B01D1022350E07B6801226E
:103B080083F83C207B68022283F83D207B681B6891
:103B18005B68FB607B681B689B68BB60FB6823F085
:103B28007003FB603B681B68FA681343FB607B68A3
:103B38001B68FA685A607B681B681C4A934218D055
:103B48007B681B68B3F1804F13D07B681B68184AE9
:103B580093420ED07B681B68164A934209D07B6853
:103B68001B68154A934204D07B681B68134A93422A
:103B78000CD1BB6823F08003BB603B685B68BA6804
:103B88001343BB607B681B68BA689A607B68012234
:103B980083F83D207B68002283F83C2000231846E8
:103BA8001437BD465DF8047B704700BF0000014034
:103BB8000004004000080040000C004000400140A4
:103BC80070B50D4D0D4C641BA4100026A64209D1FA
:103BD8000B4D0C4C00F020F8641BA4100026A642E4
:103BE80005D170BD55F8043B98470136EEE755F806
:103BF800043B98470136F2E7603C0008603C000847
:103C0800603C0008643C000802440346934200D12B
:103C1800704703F8011BF9E7F8B500BFF8BC08BC0A
:103C28009E467047F8B500BFF8BC08BC9E46704772
:103C3800E7E7E7E7E7000000C2C2C2C2C20000002F
:103C48000000000000000000010203040607080944
:083C5800B0C5FF7F0100000070
:043C6000BD0100089A
:043C640099010008BA
:103C6800EADDCCBBAA000000EBDDCCBBAA0000005B
:103C7800ECDDCCBBAA000000EDDDCCBBAA00000047
:0C3C88000024F400100000000100000007
:04000005080015DDFD
:00000001FF
